{
  "contracts/mm314.sol": {
    "mm314": {
      "abi": [
        {
          "inputs": [
            {
              "internalType": "uint256",
              "name": "_i_totalSupply",
              "type": "uint256"
            },
            {
              "internalType": "uint256",
              "name": "_creatorInitAmount",
              "type": "uint256"
            }
          ],
          "stateMutability": "payable",
          "type": "constructor"
        },
        {
          "anonymous": false,
          "inputs": [
            {
              "indexed": false,
              "internalType": "uint32",
              "name": "_blockToUnlockLiquidity",
              "type": "uint32"
            },
            {
              "indexed": false,
              "internalType": "uint256",
              "name": "value",
              "type": "uint256"
            }
          ],
          "name": "AddLiquidity",
          "type": "event"
        },
        {
          "anonymous": false,
          "inputs": [
            {
              "indexed": true,
              "internalType": "address",
              "name": "owner",
              "type": "address"
            },
            {
              "indexed": true,
              "internalType": "address",
              "name": "spender",
              "type": "address"
            },
            {
              "indexed": false,
              "internalType": "uint256",
              "name": "value",
              "type": "uint256"
            }
          ],
          "name": "Approval",
          "type": "event"
        },
        {
          "anonymous": false,
          "inputs": [
            {
              "indexed": true,
              "internalType": "address",
              "name": "from",
              "type": "address"
            },
            {
              "indexed": false,
              "internalType": "uint256",
              "name": "tokenValue",
              "type": "uint256"
            },
            {
              "indexed": false,
              "internalType": "uint256",
              "name": "value",
              "type": "uint256"
            }
          ],
          "name": "Bought",
          "type": "event"
        },
        {
          "anonymous": false,
          "inputs": [
            {
              "indexed": true,
              "internalType": "address",
              "name": "from",
              "type": "address"
            },
            {
              "indexed": false,
              "internalType": "uint256",
              "name": "tokenValue",
              "type": "uint256"
            },
            {
              "indexed": false,
              "internalType": "uint256",
              "name": "value",
              "type": "uint256"
            }
          ],
          "name": "Saled",
          "type": "event"
        },
        {
          "anonymous": false,
          "inputs": [
            {
              "indexed": true,
              "internalType": "address",
              "name": "sender",
              "type": "address"
            },
            {
              "indexed": false,
              "internalType": "uint256",
              "name": "amount0In",
              "type": "uint256"
            },
            {
              "indexed": false,
              "internalType": "uint256",
              "name": "amount1In",
              "type": "uint256"
            },
            {
              "indexed": false,
              "internalType": "uint256",
              "name": "amount0Out",
              "type": "uint256"
            },
            {
              "indexed": false,
              "internalType": "uint256",
              "name": "amount1Out",
              "type": "uint256"
            }
          ],
          "name": "Swap",
          "type": "event"
        },
        {
          "anonymous": false,
          "inputs": [
            {
              "indexed": true,
              "internalType": "address",
              "name": "from",
              "type": "address"
            },
            {
              "indexed": true,
              "internalType": "address",
              "name": "to",
              "type": "address"
            },
            {
              "indexed": false,
              "internalType": "uint256",
              "name": "tokenAmount",
              "type": "uint256"
            }
          ],
          "name": "Transfer",
          "type": "event"
        },
        {
          "inputs": [
            {
              "internalType": "uint32",
              "name": "_blockToUnlockLiquidity",
              "type": "uint32"
            }
          ],
          "name": "addLiquidity",
          "outputs": [],
          "stateMutability": "pure",
          "type": "function"
        },
        {
          "inputs": [
            {
              "internalType": "address",
              "name": "",
              "type": "address"
            }
          ],
          "name": "balanceOf",
          "outputs": [
            {
              "internalType": "uint256",
              "name": "",
              "type": "uint256"
            }
          ],
          "stateMutability": "view",
          "type": "function"
        },
        {
          "inputs": [],
          "name": "creator",
          "outputs": [
            {
              "internalType": "address",
              "name": "",
              "type": "address"
            }
          ],
          "stateMutability": "view",
          "type": "function"
        },
        {
          "inputs": [],
          "name": "decimals",
          "outputs": [
            {
              "internalType": "uint8",
              "name": "",
              "type": "uint8"
            }
          ],
          "stateMutability": "view",
          "type": "function"
        },
        {
          "inputs": [
            {
              "internalType": "address",
              "name": "",
              "type": "address"
            }
          ],
          "name": "isMinter",
          "outputs": [
            {
              "internalType": "bool",
              "name": "",
              "type": "bool"
            }
          ],
          "stateMutability": "view",
          "type": "function"
        },
        {
          "inputs": [],
          "name": "name",
          "outputs": [
            {
              "internalType": "string",
              "name": "",
              "type": "string"
            }
          ],
          "stateMutability": "view",
          "type": "function"
        },
        {
          "inputs": [],
          "name": "poolBalance",
          "outputs": [
            {
              "internalType": "uint256",
              "name": "",
              "type": "uint256"
            }
          ],
          "stateMutability": "view",
          "type": "function"
        },
        {
          "inputs": [],
          "name": "removeLiquidity",
          "outputs": [],
          "stateMutability": "pure",
          "type": "function"
        },
        {
          "inputs": [],
          "name": "symbol",
          "outputs": [
            {
              "internalType": "string",
              "name": "",
              "type": "string"
            }
          ],
          "stateMutability": "view",
          "type": "function"
        },
        {
          "inputs": [],
          "name": "taxBalance",
          "outputs": [
            {
              "internalType": "uint256",
              "name": "",
              "type": "uint256"
            }
          ],
          "stateMutability": "view",
          "type": "function"
        },
        {
          "inputs": [],
          "name": "totalSupply",
          "outputs": [
            {
              "internalType": "uint256",
              "name": "",
              "type": "uint256"
            }
          ],
          "stateMutability": "view",
          "type": "function"
        },
        {
          "inputs": [
            {
              "internalType": "address",
              "name": "to",
              "type": "address"
            },
            {
              "internalType": "uint256",
              "name": "tokenValue",
              "type": "uint256"
            }
          ],
          "name": "transfer",
          "outputs": [
            {
              "internalType": "bool",
              "name": "",
              "type": "bool"
            }
          ],
          "stateMutability": "payable",
          "type": "function"
        },
        {
          "inputs": [],
          "name": "transferDelay",
          "outputs": [
            {
              "internalType": "uint256",
              "name": "",
              "type": "uint256"
            }
          ],
          "stateMutability": "view",
          "type": "function"
        },
        {
          "stateMutability": "payable",
          "type": "receive"
        }
      ],
      "evm": {
        "bytecode": {
          "linkReferences": {},
          "object": "60c0604052601260ff1660809060ff16815250604051620016f0380380620016f083398181016040528101906200003791906200032a565b600034116200007d576040517f08c379a00000000000000000000000000000000000000000000000000000000081526004016200007490620003d2565b60405180910390fd5b6301406f40821015620000c7576040517f08c379a0000000000000000000000000000000000000000000000000000000008152600401620000be906200046a565b60405180910390fd5b60003090503373ffffffffffffffffffffffffffffffffffffffff1660a08173ffffffffffffffffffffffffffffffffffffffff16815250506200011134620002e360201b60201c565b60028190555060025434620001279190620004bb565b600381905550670de0b6b3a764000083620001439190620004f6565b600181905550670de0b6b3a7640000826200015f9190620004f6565b60008060a05173ffffffffffffffffffffffffffffffffffffffff1673ffffffffffffffffffffffffffffffffffffffff1681526020019081526020016000208190555060008060a05173ffffffffffffffffffffffffffffffffffffffff1673ffffffffffffffffffffffffffffffffffffffff16815260200190815260200160002054600154620001f39190620004bb565b6000808373ffffffffffffffffffffffffffffffffffffffff1673ffffffffffffffffffffffffffffffffffffffff168152602001908152602001600020819055508073ffffffffffffffffffffffffffffffffffffffff168173ffffffffffffffffffffffffffffffffffffffff167fddf252ad1be2c89b69c2b068fc378daa952ba7f163c4a11628f55a4df523b3ef6000808573ffffffffffffffffffffffffffffffffffffffff1673ffffffffffffffffffffffffffffffffffffffff16815260200190815260200160002054604051620002d2919062000552565b60405180910390a35050506200056f565b6000919050565b600080fd5b6000819050919050565b6200030481620002ef565b81146200031057600080fd5b50565b6000815190506200032481620002f9565b92915050565b60008060408385031215620003445762000343620002ea565b5b6000620003548582860162000313565b9250506020620003678582860162000313565b9150509250929050565b600082825260208201905092915050565b7f6e65656420737570706c79206d61696e20636f696e2076616c75652e31310000600082015250565b6000620003ba601e8362000371565b9150620003c78262000382565b602082019050919050565b60006020820190508181036000830152620003ed81620003ab565b9050919050565b7f6e656564205f695f746f74616c537570706c7920657175616c206f72206d6f7260008201527f65207468616e2032313030303030300000000000000000000000000000000000602082015250565b600062000452602f8362000371565b91506200045f82620003f4565b604082019050919050565b60006020820190508181036000830152620004858162000443565b9050919050565b7f4e487b7100000000000000000000000000000000000000000000000000000000600052601160045260246000fd5b6000620004c882620002ef565b9150620004d583620002ef565b9250828203905081811115620004f057620004ef6200048c565b5b92915050565b60006200050382620002ef565b91506200051083620002ef565b92508282026200052081620002ef565b915082820484148315176200053a57620005396200048c565b5b5092915050565b6200054c81620002ef565b82525050565b600060208201905062000569600083018462000541565b92915050565b60805160a05161115b620005956000396000610579015260006105e5015261115b6000f3fe6080604052600436106100c65760003560e01c806370a082311161007f5780639a540abf116100595780639a540abf146104af578063a9059cbb146104d8578063aa271e1a14610508578063aa98e1631461054557610329565b806370a082311461041c57806395d89b411461045957806396365d441461048457610329565b806302d05d3f1461032e57806306fdde03146103595780630a702e8d1461038457806318160ddd146103af578063313ce567146103da57806367b9a2861461040557610329565b36610329576000341161010e576040517f08c379a000000000000000000000000000000000000000000000000000000000815260040161010590610ae8565b60405180910390fd5b600061011934610570565b9050600081346101299190610b41565b905060008160035461013b9190610b75565b826000803073ffffffffffffffffffffffffffffffffffffffff1673ffffffffffffffffffffffffffffffffffffffff168152602001908152602001600020546101859190610ba9565b61018f9190610c1a565b9050806000803073ffffffffffffffffffffffffffffffffffffffff1673ffffffffffffffffffffffffffffffffffffffff16815260200190815260200160002060008282546101df9190610b41565b92505081905550806000803373ffffffffffffffffffffffffffffffffffffffff1673ffffffffffffffffffffffffffffffffffffffff16815260200190815260200160002060008282546102349190610b75565b92505081905550816003600082825461024d9190610b75565b9250508190555082600260008282546102669190610b75565b925050819055503373ffffffffffffffffffffffffffffffffffffffff163073ffffffffffffffffffffffffffffffffffffffff167fddf252ad1be2c89b69c2b068fc378daa952ba7f163c4a11628f55a4df523b3ef836040516102ca9190610c5a565b60405180910390a33373ffffffffffffffffffffffffffffffffffffffff167f49926bbebe8474393f434dfa4f78694c0923efa07d19f2284518bfabd06eb737346000808560405161031f9493929190610cba565b60405180910390a2005b600080fd5b34801561033a57600080fd5b50610343610577565b6040516103509190610d40565b60405180910390f35b34801561036557600080fd5b5061036e61059b565b60405161037b9190610dda565b60405180910390f35b34801561039057600080fd5b506103996105d4565b6040516103a69190610c5a565b60405180910390f35b3480156103bb57600080fd5b506103c46105d9565b6040516103d19190610c5a565b60405180910390f35b3480156103e657600080fd5b506103ef6105e3565b6040516103fc9190610e18565b60405180910390f35b34801561041157600080fd5b5061041a610607565b005b34801561042857600080fd5b50610443600480360381019061043e9190610e64565b61064d565b6040516104509190610c5a565b60405180910390f35b34801561046557600080fd5b5061046e610665565b60405161047b9190610dda565b60405180910390f35b34801561049057600080fd5b5061049961069e565b6040516104a69190610c5a565b60405180910390f35b3480156104bb57600080fd5b506104d660048036038101906104d19190610ecd565b6106a4565b005b6104f260048036038101906104ed9190610f26565b6106eb565b6040516104ff9190610f81565b60405180910390f35b34801561051457600080fd5b5061052f600480360381019061052a9190610e64565b610a1f565b60405161053c9190610f81565b60405180910390f35b34801561055157600080fd5b5061055a610a3f565b6040516105679190610c5a565b60405180910390f35b6000919050565b7f000000000000000000000000000000000000000000000000000000000000000081565b6040518060400160405280600581526020017f4d4d33313400000000000000000000000000000000000000000000000000000081525081565b603c81565b6000600154905090565b7f000000000000000000000000000000000000000000000000000000000000000081565b600260011461064b576040517f08c379a000000000000000000000000000000000000000000000000000000000815260040161064290610fe8565b60405180910390fd5b565b60006020528060005260406000206000915090505481565b6040518060400160405280600581526020017f4d4d33313400000000000000000000000000000000000000000000000000000081525081565b60035481565b60026001146106e8576040517f08c379a00000000000000000000000000000000000000000000000000000000081526004016106df90611054565b60405180910390fd5b50565b60008073ffffffffffffffffffffffffffffffffffffffff168373ffffffffffffffffffffffffffffffffffffffff160361072557600080fd5b816000803373ffffffffffffffffffffffffffffffffffffffff1673ffffffffffffffffffffffffffffffffffffffff1681526020019081526020016000205410156107a6576040517f08c379a000000000000000000000000000000000000000000000000000000000815260040161079d906110c0565b60405180910390fd5b816000803373ffffffffffffffffffffffffffffffffffffffff1673ffffffffffffffffffffffffffffffffffffffff16815260200190815260200160002060008282546107f49190610b41565b92505081905550816000808573ffffffffffffffffffffffffffffffffffffffff1673ffffffffffffffffffffffffffffffffffffffff16815260200190815260200160002060008282546108499190610b75565b925050819055508273ffffffffffffffffffffffffffffffffffffffff163373ffffffffffffffffffffffffffffffffffffffff167fddf252ad1be2c89b69c2b068fc378daa952ba7f163c4a11628f55a4df523b3ef846040516108ad9190610c5a565b60405180910390a33073ffffffffffffffffffffffffffffffffffffffff168373ffffffffffffffffffffffffffffffffffffffff1603610a15576000826108f3610a45565b6108fd9190610b75565b9050600081846003546109109190610ba9565b61091a9190610c1a565b9050600061092782610570565b905080826109359190610b41565b91503373ffffffffffffffffffffffffffffffffffffffff166108fc839081150290604051600060405180830381858888f1935050505015801561097d573d6000803e3d6000fd5b50808261098a9190610b75565b6003600082825461099b9190610b41565b9250508190555080600260008282546109b49190610b75565b925050819055503373ffffffffffffffffffffffffffffffffffffffff167f49926bbebe8474393f434dfa4f78694c0923efa07d19f2284518bfabd06eb737600087856000604051610a0994939291906110e0565b60405180910390a25050505b6001905092915050565b60046020528060005260406000206000915054906101000a900460ff1681565b60025481565b60008060003073ffffffffffffffffffffffffffffffffffffffff1673ffffffffffffffffffffffffffffffffffffffff16815260200190815260200160002054905090565b600082825260208201905092915050565b7f6e656564206d6f7265207468616e207a65726f2e000000000000000000000000600082015250565b6000610ad2601483610a8b565b9150610add82610a9c565b602082019050919050565b60006020820190508181036000830152610b0181610ac5565b9050919050565b6000819050919050565b7f4e487b7100000000000000000000000000000000000000000000000000000000600052601160045260246000fd5b6000610b4c82610b08565b9150610b5783610b08565b9250828203905081811115610b6f57610b6e610b12565b5b92915050565b6000610b8082610b08565b9150610b8b83610b08565b9250828201905080821115610ba357610ba2610b12565b5b92915050565b6000610bb482610b08565b9150610bbf83610b08565b9250828202610bcd81610b08565b91508282048414831517610be457610be3610b12565b5b5092915050565b7f4e487b7100000000000000000000000000000000000000000000000000000000600052601260045260246000fd5b6000610c2582610b08565b9150610c3083610b08565b925082610c4057610c3f610beb565b5b828204905092915050565b610c5481610b08565b82525050565b6000602082019050610c6f6000830184610c4b565b92915050565b6000819050919050565b6000819050919050565b6000610ca4610c9f610c9a84610c75565b610c7f565b610b08565b9050919050565b610cb481610c89565b82525050565b6000608082019050610ccf6000830187610c4b565b610cdc6020830186610cab565b610ce96040830185610cab565b610cf66060830184610c4b565b95945050505050565b600073ffffffffffffffffffffffffffffffffffffffff82169050919050565b6000610d2a82610cff565b9050919050565b610d3a81610d1f565b82525050565b6000602082019050610d556000830184610d31565b92915050565b600081519050919050565b60005b83811015610d84578082015181840152602081019050610d69565b60008484015250505050565b6000601f19601f8301169050919050565b6000610dac82610d5b565b610db68185610a8b565b9350610dc6818560208601610d66565b610dcf81610d90565b840191505092915050565b60006020820190508181036000830152610df48184610da1565b905092915050565b600060ff82169050919050565b610e1281610dfc565b82525050565b6000602082019050610e2d6000830184610e09565b92915050565b600080fd5b610e4181610d1f565b8114610e4c57600080fd5b50565b600081359050610e5e81610e38565b92915050565b600060208284031215610e7a57610e79610e33565b5b6000610e8884828501610e4f565b91505092915050565b600063ffffffff82169050919050565b610eaa81610e91565b8114610eb557600080fd5b50565b600081359050610ec781610ea1565b92915050565b600060208284031215610ee357610ee2610e33565b5b6000610ef184828501610eb8565b91505092915050565b610f0381610b08565b8114610f0e57600080fd5b50565b600081359050610f2081610efa565b92915050565b60008060408385031215610f3d57610f3c610e33565b5b6000610f4b85828601610e4f565b9250506020610f5c85828601610f11565b9150509250929050565b60008115159050919050565b610f7b81610f66565b82525050565b6000602082019050610f966000830184610f72565b92915050565b7f4c69717569646974792063616e27742072656d6f766500000000000000000000600082015250565b6000610fd2601683610a8b565b9150610fdd82610f9c565b602082019050919050565b6000602082019050818103600083015261100181610fc5565b9050919050565b7f4c697175696469747920616c7265616479206164646564000000000000000000600082015250565b600061103e601783610a8b565b915061104982611008565b602082019050919050565b6000602082019050818103600083015261106d81611031565b9050919050565b7f7472616e7366657220616d6f756e7420657863656564732062616c616e63652e600082015250565b60006110aa602083610a8b565b91506110b582611074565b602082019050919050565b600060208201905081810360008301526110d98161109d565b9050919050565b60006080820190506110f56000830187610cab565b6111026020830186610c4b565b61110f6040830185610c4b565b61111c6060830184610cab565b9594505050505056fea26469706673582212207f02da7009462dcf289e5c3d1cb72c91447ef705b1dd28d9191cf12bf552568764736f6c63430008180033",
          "opcodes": "PUSH1 0xC0 PUSH1 0x40 MSTORE PUSH1 0x12 PUSH1 0xFF AND PUSH1 0x80 SWAP1 PUSH1 0xFF AND DUP2 MSTORE POP PUSH1 0x40 MLOAD PUSH3 0x16F0 CODESIZE SUB DUP1 PUSH3 0x16F0 DUP4 CODECOPY DUP2 DUP2 ADD PUSH1 0x40 MSTORE DUP2 ADD SWAP1 PUSH3 0x37 SWAP2 SWAP1 PUSH3 0x32A JUMP JUMPDEST PUSH1 0x0 CALLVALUE GT PUSH3 0x7D JUMPI PUSH1 0x40 MLOAD PUSH32 0x8C379A000000000000000000000000000000000000000000000000000000000 DUP2 MSTORE PUSH1 0x4 ADD PUSH3 0x74 SWAP1 PUSH3 0x3D2 JUMP JUMPDEST PUSH1 0x40 MLOAD DUP1 SWAP2 SUB SWAP1 REVERT JUMPDEST PUSH4 0x1406F40 DUP3 LT ISZERO PUSH3 0xC7 JUMPI PUSH1 0x40 MLOAD PUSH32 0x8C379A000000000000000000000000000000000000000000000000000000000 DUP2 MSTORE PUSH1 0x4 ADD PUSH3 0xBE SWAP1 PUSH3 0x46A JUMP JUMPDEST PUSH1 0x40 MLOAD DUP1 SWAP2 SUB SWAP1 REVERT JUMPDEST PUSH1 0x0 ADDRESS SWAP1 POP CALLER PUSH20 0xFFFFFFFFFFFFFFFFFFFFFFFFFFFFFFFFFFFFFFFF AND PUSH1 0xA0 DUP2 PUSH20 0xFFFFFFFFFFFFFFFFFFFFFFFFFFFFFFFFFFFFFFFF AND DUP2 MSTORE POP POP PUSH3 0x111 CALLVALUE PUSH3 0x2E3 PUSH1 0x20 SHL PUSH1 0x20 SHR JUMP JUMPDEST PUSH1 0x2 DUP2 SWAP1 SSTORE POP PUSH1 0x2 SLOAD CALLVALUE PUSH3 0x127 SWAP2 SWAP1 PUSH3 0x4BB JUMP JUMPDEST PUSH1 0x3 DUP2 SWAP1 SSTORE POP PUSH8 0xDE0B6B3A7640000 DUP4 PUSH3 0x143 SWAP2 SWAP1 PUSH3 0x4F6 JUMP JUMPDEST PUSH1 0x1 DUP2 SWAP1 SSTORE POP PUSH8 0xDE0B6B3A7640000 DUP3 PUSH3 0x15F SWAP2 SWAP1 PUSH3 0x4F6 JUMP JUMPDEST PUSH1 0x0 DUP1 PUSH1 0xA0 MLOAD PUSH20 0xFFFFFFFFFFFFFFFFFFFFFFFFFFFFFFFFFFFFFFFF AND PUSH20 0xFFFFFFFFFFFFFFFFFFFFFFFFFFFFFFFFFFFFFFFF AND DUP2 MSTORE PUSH1 0x20 ADD SWAP1 DUP2 MSTORE PUSH1 0x20 ADD PUSH1 0x0 KECCAK256 DUP2 SWAP1 SSTORE POP PUSH1 0x0 DUP1 PUSH1 0xA0 MLOAD PUSH20 0xFFFFFFFFFFFFFFFFFFFFFFFFFFFFFFFFFFFFFFFF AND PUSH20 0xFFFFFFFFFFFFFFFFFFFFFFFFFFFFFFFFFFFFFFFF AND DUP2 MSTORE PUSH1 0x20 ADD SWAP1 DUP2 MSTORE PUSH1 0x20 ADD PUSH1 0x0 KECCAK256 SLOAD PUSH1 0x1 SLOAD PUSH3 0x1F3 SWAP2 SWAP1 PUSH3 0x4BB JUMP JUMPDEST PUSH1 0x0 DUP1 DUP4 PUSH20 0xFFFFFFFFFFFFFFFFFFFFFFFFFFFFFFFFFFFFFFFF AND PUSH20 0xFFFFFFFFFFFFFFFFFFFFFFFFFFFFFFFFFFFFFFFF AND DUP2 MSTORE PUSH1 0x20 ADD SWAP1 DUP2 MSTORE PUSH1 0x20 ADD PUSH1 0x0 KECCAK256 DUP2 SWAP1 SSTORE POP DUP1 PUSH20 0xFFFFFFFFFFFFFFFFFFFFFFFFFFFFFFFFFFFFFFFF AND DUP2 PUSH20 0xFFFFFFFFFFFFFFFFFFFFFFFFFFFFFFFFFFFFFFFF AND PUSH32 0xDDF252AD1BE2C89B69C2B068FC378DAA952BA7F163C4A11628F55A4DF523B3EF PUSH1 0x0 DUP1 DUP6 PUSH20 0xFFFFFFFFFFFFFFFFFFFFFFFFFFFFFFFFFFFFFFFF AND PUSH20 0xFFFFFFFFFFFFFFFFFFFFFFFFFFFFFFFFFFFFFFFF AND DUP2 MSTORE PUSH1 0x20 ADD SWAP1 DUP2 MSTORE PUSH1 0x20 ADD PUSH1 0x0 KECCAK256 SLOAD PUSH1 0x40 MLOAD PUSH3 0x2D2 SWAP2 SWAP1 PUSH3 0x552 JUMP JUMPDEST PUSH1 0x40 MLOAD DUP1 SWAP2 SUB SWAP1 LOG3 POP POP POP PUSH3 0x56F JUMP JUMPDEST PUSH1 0x0 SWAP2 SWAP1 POP JUMP JUMPDEST PUSH1 0x0 DUP1 REVERT JUMPDEST PUSH1 0x0 DUP2 SWAP1 POP SWAP2 SWAP1 POP JUMP JUMPDEST PUSH3 0x304 DUP2 PUSH3 0x2EF JUMP JUMPDEST DUP2 EQ PUSH3 0x310 JUMPI PUSH1 0x0 DUP1 REVERT JUMPDEST POP JUMP JUMPDEST PUSH1 0x0 DUP2 MLOAD SWAP1 POP PUSH3 0x324 DUP2 PUSH3 0x2F9 JUMP JUMPDEST SWAP3 SWAP2 POP POP JUMP JUMPDEST PUSH1 0x0 DUP1 PUSH1 0x40 DUP4 DUP6 SUB SLT ISZERO PUSH3 0x344 JUMPI PUSH3 0x343 PUSH3 0x2EA JUMP JUMPDEST JUMPDEST PUSH1 0x0 PUSH3 0x354 DUP6 DUP3 DUP7 ADD PUSH3 0x313 JUMP JUMPDEST SWAP3 POP POP PUSH1 0x20 PUSH3 0x367 DUP6 DUP3 DUP7 ADD PUSH3 0x313 JUMP JUMPDEST SWAP2 POP POP SWAP3 POP SWAP3 SWAP1 POP JUMP JUMPDEST PUSH1 0x0 DUP3 DUP3 MSTORE PUSH1 0x20 DUP3 ADD SWAP1 POP SWAP3 SWAP2 POP POP JUMP JUMPDEST PUSH32 0x6E65656420737570706C79206D61696E20636F696E2076616C75652E31310000 PUSH1 0x0 DUP3 ADD MSTORE POP JUMP JUMPDEST PUSH1 0x0 PUSH3 0x3BA PUSH1 0x1E DUP4 PUSH3 0x371 JUMP JUMPDEST SWAP2 POP PUSH3 0x3C7 DUP3 PUSH3 0x382 JUMP JUMPDEST PUSH1 0x20 DUP3 ADD SWAP1 POP SWAP2 SWAP1 POP JUMP JUMPDEST PUSH1 0x0 PUSH1 0x20 DUP3 ADD SWAP1 POP DUP2 DUP2 SUB PUSH1 0x0 DUP4 ADD MSTORE PUSH3 0x3ED DUP2 PUSH3 0x3AB JUMP JUMPDEST SWAP1 POP SWAP2 SWAP1 POP JUMP JUMPDEST PUSH32 0x6E656564205F695F746F74616C537570706C7920657175616C206F72206D6F72 PUSH1 0x0 DUP3 ADD MSTORE PUSH32 0x65207468616E2032313030303030300000000000000000000000000000000000 PUSH1 0x20 DUP3 ADD MSTORE POP JUMP JUMPDEST PUSH1 0x0 PUSH3 0x452 PUSH1 0x2F DUP4 PUSH3 0x371 JUMP JUMPDEST SWAP2 POP PUSH3 0x45F DUP3 PUSH3 0x3F4 JUMP JUMPDEST PUSH1 0x40 DUP3 ADD SWAP1 POP SWAP2 SWAP1 POP JUMP JUMPDEST PUSH1 0x0 PUSH1 0x20 DUP3 ADD SWAP1 POP DUP2 DUP2 SUB PUSH1 0x0 DUP4 ADD MSTORE PUSH3 0x485 DUP2 PUSH3 0x443 JUMP JUMPDEST SWAP1 POP SWAP2 SWAP1 POP JUMP JUMPDEST PUSH32 0x4E487B7100000000000000000000000000000000000000000000000000000000 PUSH1 0x0 MSTORE PUSH1 0x11 PUSH1 0x4 MSTORE PUSH1 0x24 PUSH1 0x0 REVERT JUMPDEST PUSH1 0x0 PUSH3 0x4C8 DUP3 PUSH3 0x2EF JUMP JUMPDEST SWAP2 POP PUSH3 0x4D5 DUP4 PUSH3 0x2EF JUMP JUMPDEST SWAP3 POP DUP3 DUP3 SUB SWAP1 POP DUP2 DUP2 GT ISZERO PUSH3 0x4F0 JUMPI PUSH3 0x4EF PUSH3 0x48C JUMP JUMPDEST JUMPDEST SWAP3 SWAP2 POP POP JUMP JUMPDEST PUSH1 0x0 PUSH3 0x503 DUP3 PUSH3 0x2EF JUMP JUMPDEST SWAP2 POP PUSH3 0x510 DUP4 PUSH3 0x2EF JUMP JUMPDEST SWAP3 POP DUP3 DUP3 MUL PUSH3 0x520 DUP2 PUSH3 0x2EF JUMP JUMPDEST SWAP2 POP DUP3 DUP3 DIV DUP5 EQ DUP4 ISZERO OR PUSH3 0x53A JUMPI PUSH3 0x539 PUSH3 0x48C JUMP JUMPDEST JUMPDEST POP SWAP3 SWAP2 POP POP JUMP JUMPDEST PUSH3 0x54C DUP2 PUSH3 0x2EF JUMP JUMPDEST DUP3 MSTORE POP POP JUMP JUMPDEST PUSH1 0x0 PUSH1 0x20 DUP3 ADD SWAP1 POP PUSH3 0x569 PUSH1 0x0 DUP4 ADD DUP5 PUSH3 0x541 JUMP JUMPDEST SWAP3 SWAP2 POP POP JUMP JUMPDEST PUSH1 0x80 MLOAD PUSH1 0xA0 MLOAD PUSH2 0x115B PUSH3 0x595 PUSH1 0x0 CODECOPY PUSH1 0x0 PUSH2 0x579 ADD MSTORE PUSH1 0x0 PUSH2 0x5E5 ADD MSTORE PUSH2 0x115B PUSH1 0x0 RETURN INVALID PUSH1 0x80 PUSH1 0x40 MSTORE PUSH1 0x4 CALLDATASIZE LT PUSH2 0xC6 JUMPI PUSH1 0x0 CALLDATALOAD PUSH1 0xE0 SHR DUP1 PUSH4 0x70A08231 GT PUSH2 0x7F JUMPI DUP1 PUSH4 0x9A540ABF GT PUSH2 0x59 JUMPI DUP1 PUSH4 0x9A540ABF EQ PUSH2 0x4AF JUMPI DUP1 PUSH4 0xA9059CBB EQ PUSH2 0x4D8 JUMPI DUP1 PUSH4 0xAA271E1A EQ PUSH2 0x508 JUMPI DUP1 PUSH4 0xAA98E163 EQ PUSH2 0x545 JUMPI PUSH2 0x329 JUMP JUMPDEST DUP1 PUSH4 0x70A08231 EQ PUSH2 0x41C JUMPI DUP1 PUSH4 0x95D89B41 EQ PUSH2 0x459 JUMPI DUP1 PUSH4 0x96365D44 EQ PUSH2 0x484 JUMPI PUSH2 0x329 JUMP JUMPDEST DUP1 PUSH4 0x2D05D3F EQ PUSH2 0x32E JUMPI DUP1 PUSH4 0x6FDDE03 EQ PUSH2 0x359 JUMPI DUP1 PUSH4 0xA702E8D EQ PUSH2 0x384 JUMPI DUP1 PUSH4 0x18160DDD EQ PUSH2 0x3AF JUMPI DUP1 PUSH4 0x313CE567 EQ PUSH2 0x3DA JUMPI DUP1 PUSH4 0x67B9A286 EQ PUSH2 0x405 JUMPI PUSH2 0x329 JUMP JUMPDEST CALLDATASIZE PUSH2 0x329 JUMPI PUSH1 0x0 CALLVALUE GT PUSH2 0x10E JUMPI PUSH1 0x40 MLOAD PUSH32 0x8C379A000000000000000000000000000000000000000000000000000000000 DUP2 MSTORE PUSH1 0x4 ADD PUSH2 0x105 SWAP1 PUSH2 0xAE8 JUMP JUMPDEST PUSH1 0x40 MLOAD DUP1 SWAP2 SUB SWAP1 REVERT JUMPDEST PUSH1 0x0 PUSH2 0x119 CALLVALUE PUSH2 0x570 JUMP JUMPDEST SWAP1 POP PUSH1 0x0 DUP2 CALLVALUE PUSH2 0x129 SWAP2 SWAP1 PUSH2 0xB41 JUMP JUMPDEST SWAP1 POP PUSH1 0x0 DUP2 PUSH1 0x3 SLOAD PUSH2 0x13B SWAP2 SWAP1 PUSH2 0xB75 JUMP JUMPDEST DUP3 PUSH1 0x0 DUP1 ADDRESS PUSH20 0xFFFFFFFFFFFFFFFFFFFFFFFFFFFFFFFFFFFFFFFF AND PUSH20 0xFFFFFFFFFFFFFFFFFFFFFFFFFFFFFFFFFFFFFFFF AND DUP2 MSTORE PUSH1 0x20 ADD SWAP1 DUP2 MSTORE PUSH1 0x20 ADD PUSH1 0x0 KECCAK256 SLOAD PUSH2 0x185 SWAP2 SWAP1 PUSH2 0xBA9 JUMP JUMPDEST PUSH2 0x18F SWAP2 SWAP1 PUSH2 0xC1A JUMP JUMPDEST SWAP1 POP DUP1 PUSH1 0x0 DUP1 ADDRESS PUSH20 0xFFFFFFFFFFFFFFFFFFFFFFFFFFFFFFFFFFFFFFFF AND PUSH20 0xFFFFFFFFFFFFFFFFFFFFFFFFFFFFFFFFFFFFFFFF AND DUP2 MSTORE PUSH1 0x20 ADD SWAP1 DUP2 MSTORE PUSH1 0x20 ADD PUSH1 0x0 KECCAK256 PUSH1 0x0 DUP3 DUP3 SLOAD PUSH2 0x1DF SWAP2 SWAP1 PUSH2 0xB41 JUMP JUMPDEST SWAP3 POP POP DUP2 SWAP1 SSTORE POP DUP1 PUSH1 0x0 DUP1 CALLER PUSH20 0xFFFFFFFFFFFFFFFFFFFFFFFFFFFFFFFFFFFFFFFF AND PUSH20 0xFFFFFFFFFFFFFFFFFFFFFFFFFFFFFFFFFFFFFFFF AND DUP2 MSTORE PUSH1 0x20 ADD SWAP1 DUP2 MSTORE PUSH1 0x20 ADD PUSH1 0x0 KECCAK256 PUSH1 0x0 DUP3 DUP3 SLOAD PUSH2 0x234 SWAP2 SWAP1 PUSH2 0xB75 JUMP JUMPDEST SWAP3 POP POP DUP2 SWAP1 SSTORE POP DUP2 PUSH1 0x3 PUSH1 0x0 DUP3 DUP3 SLOAD PUSH2 0x24D SWAP2 SWAP1 PUSH2 0xB75 JUMP JUMPDEST SWAP3 POP POP DUP2 SWAP1 SSTORE POP DUP3 PUSH1 0x2 PUSH1 0x0 DUP3 DUP3 SLOAD PUSH2 0x266 SWAP2 SWAP1 PUSH2 0xB75 JUMP JUMPDEST SWAP3 POP POP DUP2 SWAP1 SSTORE POP CALLER PUSH20 0xFFFFFFFFFFFFFFFFFFFFFFFFFFFFFFFFFFFFFFFF AND ADDRESS PUSH20 0xFFFFFFFFFFFFFFFFFFFFFFFFFFFFFFFFFFFFFFFF AND PUSH32 0xDDF252AD1BE2C89B69C2B068FC378DAA952BA7F163C4A11628F55A4DF523B3EF DUP4 PUSH1 0x40 MLOAD PUSH2 0x2CA SWAP2 SWAP1 PUSH2 0xC5A JUMP JUMPDEST PUSH1 0x40 MLOAD DUP1 SWAP2 SUB SWAP1 LOG3 CALLER PUSH20 0xFFFFFFFFFFFFFFFFFFFFFFFFFFFFFFFFFFFFFFFF AND PUSH32 0x49926BBEBE8474393F434DFA4F78694C0923EFA07D19F2284518BFABD06EB737 CALLVALUE PUSH1 0x0 DUP1 DUP6 PUSH1 0x40 MLOAD PUSH2 0x31F SWAP5 SWAP4 SWAP3 SWAP2 SWAP1 PUSH2 0xCBA JUMP JUMPDEST PUSH1 0x40 MLOAD DUP1 SWAP2 SUB SWAP1 LOG2 STOP JUMPDEST PUSH1 0x0 DUP1 REVERT JUMPDEST CALLVALUE DUP1 ISZERO PUSH2 0x33A JUMPI PUSH1 0x0 DUP1 REVERT JUMPDEST POP PUSH2 0x343 PUSH2 0x577 JUMP JUMPDEST PUSH1 0x40 MLOAD PUSH2 0x350 SWAP2 SWAP1 PUSH2 0xD40 JUMP JUMPDEST PUSH1 0x40 MLOAD DUP1 SWAP2 SUB SWAP1 RETURN JUMPDEST CALLVALUE DUP1 ISZERO PUSH2 0x365 JUMPI PUSH1 0x0 DUP1 REVERT JUMPDEST POP PUSH2 0x36E PUSH2 0x59B JUMP JUMPDEST PUSH1 0x40 MLOAD PUSH2 0x37B SWAP2 SWAP1 PUSH2 0xDDA JUMP JUMPDEST PUSH1 0x40 MLOAD DUP1 SWAP2 SUB SWAP1 RETURN JUMPDEST CALLVALUE DUP1 ISZERO PUSH2 0x390 JUMPI PUSH1 0x0 DUP1 REVERT JUMPDEST POP PUSH2 0x399 PUSH2 0x5D4 JUMP JUMPDEST PUSH1 0x40 MLOAD PUSH2 0x3A6 SWAP2 SWAP1 PUSH2 0xC5A JUMP JUMPDEST PUSH1 0x40 MLOAD DUP1 SWAP2 SUB SWAP1 RETURN JUMPDEST CALLVALUE DUP1 ISZERO PUSH2 0x3BB JUMPI PUSH1 0x0 DUP1 REVERT JUMPDEST POP PUSH2 0x3C4 PUSH2 0x5D9 JUMP JUMPDEST PUSH1 0x40 MLOAD PUSH2 0x3D1 SWAP2 SWAP1 PUSH2 0xC5A JUMP JUMPDEST PUSH1 0x40 MLOAD DUP1 SWAP2 SUB SWAP1 RETURN JUMPDEST CALLVALUE DUP1 ISZERO PUSH2 0x3E6 JUMPI PUSH1 0x0 DUP1 REVERT JUMPDEST POP PUSH2 0x3EF PUSH2 0x5E3 JUMP JUMPDEST PUSH1 0x40 MLOAD PUSH2 0x3FC SWAP2 SWAP1 PUSH2 0xE18 JUMP JUMPDEST PUSH1 0x40 MLOAD DUP1 SWAP2 SUB SWAP1 RETURN JUMPDEST CALLVALUE DUP1 ISZERO PUSH2 0x411 JUMPI PUSH1 0x0 DUP1 REVERT JUMPDEST POP PUSH2 0x41A PUSH2 0x607 JUMP JUMPDEST STOP JUMPDEST CALLVALUE DUP1 ISZERO PUSH2 0x428 JUMPI PUSH1 0x0 DUP1 REVERT JUMPDEST POP PUSH2 0x443 PUSH1 0x4 DUP1 CALLDATASIZE SUB DUP2 ADD SWAP1 PUSH2 0x43E SWAP2 SWAP1 PUSH2 0xE64 JUMP JUMPDEST PUSH2 0x64D JUMP JUMPDEST PUSH1 0x40 MLOAD PUSH2 0x450 SWAP2 SWAP1 PUSH2 0xC5A JUMP JUMPDEST PUSH1 0x40 MLOAD DUP1 SWAP2 SUB SWAP1 RETURN JUMPDEST CALLVALUE DUP1 ISZERO PUSH2 0x465 JUMPI PUSH1 0x0 DUP1 REVERT JUMPDEST POP PUSH2 0x46E PUSH2 0x665 JUMP JUMPDEST PUSH1 0x40 MLOAD PUSH2 0x47B SWAP2 SWAP1 PUSH2 0xDDA JUMP JUMPDEST PUSH1 0x40 MLOAD DUP1 SWAP2 SUB SWAP1 RETURN JUMPDEST CALLVALUE DUP1 ISZERO PUSH2 0x490 JUMPI PUSH1 0x0 DUP1 REVERT JUMPDEST POP PUSH2 0x499 PUSH2 0x69E JUMP JUMPDEST PUSH1 0x40 MLOAD PUSH2 0x4A6 SWAP2 SWAP1 PUSH2 0xC5A JUMP JUMPDEST PUSH1 0x40 MLOAD DUP1 SWAP2 SUB SWAP1 RETURN JUMPDEST CALLVALUE DUP1 ISZERO PUSH2 0x4BB JUMPI PUSH1 0x0 DUP1 REVERT JUMPDEST POP PUSH2 0x4D6 PUSH1 0x4 DUP1 CALLDATASIZE SUB DUP2 ADD SWAP1 PUSH2 0x4D1 SWAP2 SWAP1 PUSH2 0xECD JUMP JUMPDEST PUSH2 0x6A4 JUMP JUMPDEST STOP JUMPDEST PUSH2 0x4F2 PUSH1 0x4 DUP1 CALLDATASIZE SUB DUP2 ADD SWAP1 PUSH2 0x4ED SWAP2 SWAP1 PUSH2 0xF26 JUMP JUMPDEST PUSH2 0x6EB JUMP JUMPDEST PUSH1 0x40 MLOAD PUSH2 0x4FF SWAP2 SWAP1 PUSH2 0xF81 JUMP JUMPDEST PUSH1 0x40 MLOAD DUP1 SWAP2 SUB SWAP1 RETURN JUMPDEST CALLVALUE DUP1 ISZERO PUSH2 0x514 JUMPI PUSH1 0x0 DUP1 REVERT JUMPDEST POP PUSH2 0x52F PUSH1 0x4 DUP1 CALLDATASIZE SUB DUP2 ADD SWAP1 PUSH2 0x52A SWAP2 SWAP1 PUSH2 0xE64 JUMP JUMPDEST PUSH2 0xA1F JUMP JUMPDEST PUSH1 0x40 MLOAD PUSH2 0x53C SWAP2 SWAP1 PUSH2 0xF81 JUMP JUMPDEST PUSH1 0x40 MLOAD DUP1 SWAP2 SUB SWAP1 RETURN JUMPDEST CALLVALUE DUP1 ISZERO PUSH2 0x551 JUMPI PUSH1 0x0 DUP1 REVERT JUMPDEST POP PUSH2 0x55A PUSH2 0xA3F JUMP JUMPDEST PUSH1 0x40 MLOAD PUSH2 0x567 SWAP2 SWAP1 PUSH2 0xC5A JUMP JUMPDEST PUSH1 0x40 MLOAD DUP1 SWAP2 SUB SWAP1 RETURN JUMPDEST PUSH1 0x0 SWAP2 SWAP1 POP JUMP JUMPDEST PUSH32 0x0 DUP2 JUMP JUMPDEST PUSH1 0x40 MLOAD DUP1 PUSH1 0x40 ADD PUSH1 0x40 MSTORE DUP1 PUSH1 0x5 DUP2 MSTORE PUSH1 0x20 ADD PUSH32 0x4D4D333134000000000000000000000000000000000000000000000000000000 DUP2 MSTORE POP DUP2 JUMP JUMPDEST PUSH1 0x3C DUP2 JUMP JUMPDEST PUSH1 0x0 PUSH1 0x1 SLOAD SWAP1 POP SWAP1 JUMP JUMPDEST PUSH32 0x0 DUP2 JUMP JUMPDEST PUSH1 0x2 PUSH1 0x1 EQ PUSH2 0x64B JUMPI PUSH1 0x40 MLOAD PUSH32 0x8C379A000000000000000000000000000000000000000000000000000000000 DUP2 MSTORE PUSH1 0x4 ADD PUSH2 0x642 SWAP1 PUSH2 0xFE8 JUMP JUMPDEST PUSH1 0x40 MLOAD DUP1 SWAP2 SUB SWAP1 REVERT JUMPDEST JUMP JUMPDEST PUSH1 0x0 PUSH1 0x20 MSTORE DUP1 PUSH1 0x0 MSTORE PUSH1 0x40 PUSH1 0x0 KECCAK256 PUSH1 0x0 SWAP2 POP SWAP1 POP SLOAD DUP2 JUMP JUMPDEST PUSH1 0x40 MLOAD DUP1 PUSH1 0x40 ADD PUSH1 0x40 MSTORE DUP1 PUSH1 0x5 DUP2 MSTORE PUSH1 0x20 ADD PUSH32 0x4D4D333134000000000000000000000000000000000000000000000000000000 DUP2 MSTORE POP DUP2 JUMP JUMPDEST PUSH1 0x3 SLOAD DUP2 JUMP JUMPDEST PUSH1 0x2 PUSH1 0x1 EQ PUSH2 0x6E8 JUMPI PUSH1 0x40 MLOAD PUSH32 0x8C379A000000000000000000000000000000000000000000000000000000000 DUP2 MSTORE PUSH1 0x4 ADD PUSH2 0x6DF SWAP1 PUSH2 0x1054 JUMP JUMPDEST PUSH1 0x40 MLOAD DUP1 SWAP2 SUB SWAP1 REVERT JUMPDEST POP JUMP JUMPDEST PUSH1 0x0 DUP1 PUSH20 0xFFFFFFFFFFFFFFFFFFFFFFFFFFFFFFFFFFFFFFFF AND DUP4 PUSH20 0xFFFFFFFFFFFFFFFFFFFFFFFFFFFFFFFFFFFFFFFF AND SUB PUSH2 0x725 JUMPI PUSH1 0x0 DUP1 REVERT JUMPDEST DUP2 PUSH1 0x0 DUP1 CALLER PUSH20 0xFFFFFFFFFFFFFFFFFFFFFFFFFFFFFFFFFFFFFFFF AND PUSH20 0xFFFFFFFFFFFFFFFFFFFFFFFFFFFFFFFFFFFFFFFF AND DUP2 MSTORE PUSH1 0x20 ADD SWAP1 DUP2 MSTORE PUSH1 0x20 ADD PUSH1 0x0 KECCAK256 SLOAD LT ISZERO PUSH2 0x7A6 JUMPI PUSH1 0x40 MLOAD PUSH32 0x8C379A000000000000000000000000000000000000000000000000000000000 DUP2 MSTORE PUSH1 0x4 ADD PUSH2 0x79D SWAP1 PUSH2 0x10C0 JUMP JUMPDEST PUSH1 0x40 MLOAD DUP1 SWAP2 SUB SWAP1 REVERT JUMPDEST DUP2 PUSH1 0x0 DUP1 CALLER PUSH20 0xFFFFFFFFFFFFFFFFFFFFFFFFFFFFFFFFFFFFFFFF AND PUSH20 0xFFFFFFFFFFFFFFFFFFFFFFFFFFFFFFFFFFFFFFFF AND DUP2 MSTORE PUSH1 0x20 ADD SWAP1 DUP2 MSTORE PUSH1 0x20 ADD PUSH1 0x0 KECCAK256 PUSH1 0x0 DUP3 DUP3 SLOAD PUSH2 0x7F4 SWAP2 SWAP1 PUSH2 0xB41 JUMP JUMPDEST SWAP3 POP POP DUP2 SWAP1 SSTORE POP DUP2 PUSH1 0x0 DUP1 DUP6 PUSH20 0xFFFFFFFFFFFFFFFFFFFFFFFFFFFFFFFFFFFFFFFF AND PUSH20 0xFFFFFFFFFFFFFFFFFFFFFFFFFFFFFFFFFFFFFFFF AND DUP2 MSTORE PUSH1 0x20 ADD SWAP1 DUP2 MSTORE PUSH1 0x20 ADD PUSH1 0x0 KECCAK256 PUSH1 0x0 DUP3 DUP3 SLOAD PUSH2 0x849 SWAP2 SWAP1 PUSH2 0xB75 JUMP JUMPDEST SWAP3 POP POP DUP2 SWAP1 SSTORE POP DUP3 PUSH20 0xFFFFFFFFFFFFFFFFFFFFFFFFFFFFFFFFFFFFFFFF AND CALLER PUSH20 0xFFFFFFFFFFFFFFFFFFFFFFFFFFFFFFFFFFFFFFFF AND PUSH32 0xDDF252AD1BE2C89B69C2B068FC378DAA952BA7F163C4A11628F55A4DF523B3EF DUP5 PUSH1 0x40 MLOAD PUSH2 0x8AD SWAP2 SWAP1 PUSH2 0xC5A JUMP JUMPDEST PUSH1 0x40 MLOAD DUP1 SWAP2 SUB SWAP1 LOG3 ADDRESS PUSH20 0xFFFFFFFFFFFFFFFFFFFFFFFFFFFFFFFFFFFFFFFF AND DUP4 PUSH20 0xFFFFFFFFFFFFFFFFFFFFFFFFFFFFFFFFFFFFFFFF AND SUB PUSH2 0xA15 JUMPI PUSH1 0x0 DUP3 PUSH2 0x8F3 PUSH2 0xA45 JUMP JUMPDEST PUSH2 0x8FD SWAP2 SWAP1 PUSH2 0xB75 JUMP JUMPDEST SWAP1 POP PUSH1 0x0 DUP2 DUP5 PUSH1 0x3 SLOAD PUSH2 0x910 SWAP2 SWAP1 PUSH2 0xBA9 JUMP JUMPDEST PUSH2 0x91A SWAP2 SWAP1 PUSH2 0xC1A JUMP JUMPDEST SWAP1 POP PUSH1 0x0 PUSH2 0x927 DUP3 PUSH2 0x570 JUMP JUMPDEST SWAP1 POP DUP1 DUP3 PUSH2 0x935 SWAP2 SWAP1 PUSH2 0xB41 JUMP JUMPDEST SWAP2 POP CALLER PUSH20 0xFFFFFFFFFFFFFFFFFFFFFFFFFFFFFFFFFFFFFFFF AND PUSH2 0x8FC DUP4 SWAP1 DUP2 ISZERO MUL SWAP1 PUSH1 0x40 MLOAD PUSH1 0x0 PUSH1 0x40 MLOAD DUP1 DUP4 SUB DUP2 DUP6 DUP9 DUP9 CALL SWAP4 POP POP POP POP ISZERO DUP1 ISZERO PUSH2 0x97D JUMPI RETURNDATASIZE PUSH1 0x0 DUP1 RETURNDATACOPY RETURNDATASIZE PUSH1 0x0 REVERT JUMPDEST POP DUP1 DUP3 PUSH2 0x98A SWAP2 SWAP1 PUSH2 0xB75 JUMP JUMPDEST PUSH1 0x3 PUSH1 0x0 DUP3 DUP3 SLOAD PUSH2 0x99B SWAP2 SWAP1 PUSH2 0xB41 JUMP JUMPDEST SWAP3 POP POP DUP2 SWAP1 SSTORE POP DUP1 PUSH1 0x2 PUSH1 0x0 DUP3 DUP3 SLOAD PUSH2 0x9B4 SWAP2 SWAP1 PUSH2 0xB75 JUMP JUMPDEST SWAP3 POP POP DUP2 SWAP1 SSTORE POP CALLER PUSH20 0xFFFFFFFFFFFFFFFFFFFFFFFFFFFFFFFFFFFFFFFF AND PUSH32 0x49926BBEBE8474393F434DFA4F78694C0923EFA07D19F2284518BFABD06EB737 PUSH1 0x0 DUP8 DUP6 PUSH1 0x0 PUSH1 0x40 MLOAD PUSH2 0xA09 SWAP5 SWAP4 SWAP3 SWAP2 SWAP1 PUSH2 0x10E0 JUMP JUMPDEST PUSH1 0x40 MLOAD DUP1 SWAP2 SUB SWAP1 LOG2 POP POP POP JUMPDEST PUSH1 0x1 SWAP1 POP SWAP3 SWAP2 POP POP JUMP JUMPDEST PUSH1 0x4 PUSH1 0x20 MSTORE DUP1 PUSH1 0x0 MSTORE PUSH1 0x40 PUSH1 0x0 KECCAK256 PUSH1 0x0 SWAP2 POP SLOAD SWAP1 PUSH2 0x100 EXP SWAP1 DIV PUSH1 0xFF AND DUP2 JUMP JUMPDEST PUSH1 0x2 SLOAD DUP2 JUMP JUMPDEST PUSH1 0x0 DUP1 PUSH1 0x0 ADDRESS PUSH20 0xFFFFFFFFFFFFFFFFFFFFFFFFFFFFFFFFFFFFFFFF AND PUSH20 0xFFFFFFFFFFFFFFFFFFFFFFFFFFFFFFFFFFFFFFFF AND DUP2 MSTORE PUSH1 0x20 ADD SWAP1 DUP2 MSTORE PUSH1 0x20 ADD PUSH1 0x0 KECCAK256 SLOAD SWAP1 POP SWAP1 JUMP JUMPDEST PUSH1 0x0 DUP3 DUP3 MSTORE PUSH1 0x20 DUP3 ADD SWAP1 POP SWAP3 SWAP2 POP POP JUMP JUMPDEST PUSH32 0x6E656564206D6F7265207468616E207A65726F2E000000000000000000000000 PUSH1 0x0 DUP3 ADD MSTORE POP JUMP JUMPDEST PUSH1 0x0 PUSH2 0xAD2 PUSH1 0x14 DUP4 PUSH2 0xA8B JUMP JUMPDEST SWAP2 POP PUSH2 0xADD DUP3 PUSH2 0xA9C JUMP JUMPDEST PUSH1 0x20 DUP3 ADD SWAP1 POP SWAP2 SWAP1 POP JUMP JUMPDEST PUSH1 0x0 PUSH1 0x20 DUP3 ADD SWAP1 POP DUP2 DUP2 SUB PUSH1 0x0 DUP4 ADD MSTORE PUSH2 0xB01 DUP2 PUSH2 0xAC5 JUMP JUMPDEST SWAP1 POP SWAP2 SWAP1 POP JUMP JUMPDEST PUSH1 0x0 DUP2 SWAP1 POP SWAP2 SWAP1 POP JUMP JUMPDEST PUSH32 0x4E487B7100000000000000000000000000000000000000000000000000000000 PUSH1 0x0 MSTORE PUSH1 0x11 PUSH1 0x4 MSTORE PUSH1 0x24 PUSH1 0x0 REVERT JUMPDEST PUSH1 0x0 PUSH2 0xB4C DUP3 PUSH2 0xB08 JUMP JUMPDEST SWAP2 POP PUSH2 0xB57 DUP4 PUSH2 0xB08 JUMP JUMPDEST SWAP3 POP DUP3 DUP3 SUB SWAP1 POP DUP2 DUP2 GT ISZERO PUSH2 0xB6F JUMPI PUSH2 0xB6E PUSH2 0xB12 JUMP JUMPDEST JUMPDEST SWAP3 SWAP2 POP POP JUMP JUMPDEST PUSH1 0x0 PUSH2 0xB80 DUP3 PUSH2 0xB08 JUMP JUMPDEST SWAP2 POP PUSH2 0xB8B DUP4 PUSH2 0xB08 JUMP JUMPDEST SWAP3 POP DUP3 DUP3 ADD SWAP1 POP DUP1 DUP3 GT ISZERO PUSH2 0xBA3 JUMPI PUSH2 0xBA2 PUSH2 0xB12 JUMP JUMPDEST JUMPDEST SWAP3 SWAP2 POP POP JUMP JUMPDEST PUSH1 0x0 PUSH2 0xBB4 DUP3 PUSH2 0xB08 JUMP JUMPDEST SWAP2 POP PUSH2 0xBBF DUP4 PUSH2 0xB08 JUMP JUMPDEST SWAP3 POP DUP3 DUP3 MUL PUSH2 0xBCD DUP2 PUSH2 0xB08 JUMP JUMPDEST SWAP2 POP DUP3 DUP3 DIV DUP5 EQ DUP4 ISZERO OR PUSH2 0xBE4 JUMPI PUSH2 0xBE3 PUSH2 0xB12 JUMP JUMPDEST JUMPDEST POP SWAP3 SWAP2 POP POP JUMP JUMPDEST PUSH32 0x4E487B7100000000000000000000000000000000000000000000000000000000 PUSH1 0x0 MSTORE PUSH1 0x12 PUSH1 0x4 MSTORE PUSH1 0x24 PUSH1 0x0 REVERT JUMPDEST PUSH1 0x0 PUSH2 0xC25 DUP3 PUSH2 0xB08 JUMP JUMPDEST SWAP2 POP PUSH2 0xC30 DUP4 PUSH2 0xB08 JUMP JUMPDEST SWAP3 POP DUP3 PUSH2 0xC40 JUMPI PUSH2 0xC3F PUSH2 0xBEB JUMP JUMPDEST JUMPDEST DUP3 DUP3 DIV SWAP1 POP SWAP3 SWAP2 POP POP JUMP JUMPDEST PUSH2 0xC54 DUP2 PUSH2 0xB08 JUMP JUMPDEST DUP3 MSTORE POP POP JUMP JUMPDEST PUSH1 0x0 PUSH1 0x20 DUP3 ADD SWAP1 POP PUSH2 0xC6F PUSH1 0x0 DUP4 ADD DUP5 PUSH2 0xC4B JUMP JUMPDEST SWAP3 SWAP2 POP POP JUMP JUMPDEST PUSH1 0x0 DUP2 SWAP1 POP SWAP2 SWAP1 POP JUMP JUMPDEST PUSH1 0x0 DUP2 SWAP1 POP SWAP2 SWAP1 POP JUMP JUMPDEST PUSH1 0x0 PUSH2 0xCA4 PUSH2 0xC9F PUSH2 0xC9A DUP5 PUSH2 0xC75 JUMP JUMPDEST PUSH2 0xC7F JUMP JUMPDEST PUSH2 0xB08 JUMP JUMPDEST SWAP1 POP SWAP2 SWAP1 POP JUMP JUMPDEST PUSH2 0xCB4 DUP2 PUSH2 0xC89 JUMP JUMPDEST DUP3 MSTORE POP POP JUMP JUMPDEST PUSH1 0x0 PUSH1 0x80 DUP3 ADD SWAP1 POP PUSH2 0xCCF PUSH1 0x0 DUP4 ADD DUP8 PUSH2 0xC4B JUMP JUMPDEST PUSH2 0xCDC PUSH1 0x20 DUP4 ADD DUP7 PUSH2 0xCAB JUMP JUMPDEST PUSH2 0xCE9 PUSH1 0x40 DUP4 ADD DUP6 PUSH2 0xCAB JUMP JUMPDEST PUSH2 0xCF6 PUSH1 0x60 DUP4 ADD DUP5 PUSH2 0xC4B JUMP JUMPDEST SWAP6 SWAP5 POP POP POP POP POP JUMP JUMPDEST PUSH1 0x0 PUSH20 0xFFFFFFFFFFFFFFFFFFFFFFFFFFFFFFFFFFFFFFFF DUP3 AND SWAP1 POP SWAP2 SWAP1 POP JUMP JUMPDEST PUSH1 0x0 PUSH2 0xD2A DUP3 PUSH2 0xCFF JUMP JUMPDEST SWAP1 POP SWAP2 SWAP1 POP JUMP JUMPDEST PUSH2 0xD3A DUP2 PUSH2 0xD1F JUMP JUMPDEST DUP3 MSTORE POP POP JUMP JUMPDEST PUSH1 0x0 PUSH1 0x20 DUP3 ADD SWAP1 POP PUSH2 0xD55 PUSH1 0x0 DUP4 ADD DUP5 PUSH2 0xD31 JUMP JUMPDEST SWAP3 SWAP2 POP POP JUMP JUMPDEST PUSH1 0x0 DUP2 MLOAD SWAP1 POP SWAP2 SWAP1 POP JUMP JUMPDEST PUSH1 0x0 JUMPDEST DUP4 DUP2 LT ISZERO PUSH2 0xD84 JUMPI DUP1 DUP3 ADD MLOAD DUP2 DUP5 ADD MSTORE PUSH1 0x20 DUP2 ADD SWAP1 POP PUSH2 0xD69 JUMP JUMPDEST PUSH1 0x0 DUP5 DUP5 ADD MSTORE POP POP POP POP JUMP JUMPDEST PUSH1 0x0 PUSH1 0x1F NOT PUSH1 0x1F DUP4 ADD AND SWAP1 POP SWAP2 SWAP1 POP JUMP JUMPDEST PUSH1 0x0 PUSH2 0xDAC DUP3 PUSH2 0xD5B JUMP JUMPDEST PUSH2 0xDB6 DUP2 DUP6 PUSH2 0xA8B JUMP JUMPDEST SWAP4 POP PUSH2 0xDC6 DUP2 DUP6 PUSH1 0x20 DUP7 ADD PUSH2 0xD66 JUMP JUMPDEST PUSH2 0xDCF DUP2 PUSH2 0xD90 JUMP JUMPDEST DUP5 ADD SWAP2 POP POP SWAP3 SWAP2 POP POP JUMP JUMPDEST PUSH1 0x0 PUSH1 0x20 DUP3 ADD SWAP1 POP DUP2 DUP2 SUB PUSH1 0x0 DUP4 ADD MSTORE PUSH2 0xDF4 DUP2 DUP5 PUSH2 0xDA1 JUMP JUMPDEST SWAP1 POP SWAP3 SWAP2 POP POP JUMP JUMPDEST PUSH1 0x0 PUSH1 0xFF DUP3 AND SWAP1 POP SWAP2 SWAP1 POP JUMP JUMPDEST PUSH2 0xE12 DUP2 PUSH2 0xDFC JUMP JUMPDEST DUP3 MSTORE POP POP JUMP JUMPDEST PUSH1 0x0 PUSH1 0x20 DUP3 ADD SWAP1 POP PUSH2 0xE2D PUSH1 0x0 DUP4 ADD DUP5 PUSH2 0xE09 JUMP JUMPDEST SWAP3 SWAP2 POP POP JUMP JUMPDEST PUSH1 0x0 DUP1 REVERT JUMPDEST PUSH2 0xE41 DUP2 PUSH2 0xD1F JUMP JUMPDEST DUP2 EQ PUSH2 0xE4C JUMPI PUSH1 0x0 DUP1 REVERT JUMPDEST POP JUMP JUMPDEST PUSH1 0x0 DUP2 CALLDATALOAD SWAP1 POP PUSH2 0xE5E DUP2 PUSH2 0xE38 JUMP JUMPDEST SWAP3 SWAP2 POP POP JUMP JUMPDEST PUSH1 0x0 PUSH1 0x20 DUP3 DUP5 SUB SLT ISZERO PUSH2 0xE7A JUMPI PUSH2 0xE79 PUSH2 0xE33 JUMP JUMPDEST JUMPDEST PUSH1 0x0 PUSH2 0xE88 DUP5 DUP3 DUP6 ADD PUSH2 0xE4F JUMP JUMPDEST SWAP2 POP POP SWAP3 SWAP2 POP POP JUMP JUMPDEST PUSH1 0x0 PUSH4 0xFFFFFFFF DUP3 AND SWAP1 POP SWAP2 SWAP1 POP JUMP JUMPDEST PUSH2 0xEAA DUP2 PUSH2 0xE91 JUMP JUMPDEST DUP2 EQ PUSH2 0xEB5 JUMPI PUSH1 0x0 DUP1 REVERT JUMPDEST POP JUMP JUMPDEST PUSH1 0x0 DUP2 CALLDATALOAD SWAP1 POP PUSH2 0xEC7 DUP2 PUSH2 0xEA1 JUMP JUMPDEST SWAP3 SWAP2 POP POP JUMP JUMPDEST PUSH1 0x0 PUSH1 0x20 DUP3 DUP5 SUB SLT ISZERO PUSH2 0xEE3 JUMPI PUSH2 0xEE2 PUSH2 0xE33 JUMP JUMPDEST JUMPDEST PUSH1 0x0 PUSH2 0xEF1 DUP5 DUP3 DUP6 ADD PUSH2 0xEB8 JUMP JUMPDEST SWAP2 POP POP SWAP3 SWAP2 POP POP JUMP JUMPDEST PUSH2 0xF03 DUP2 PUSH2 0xB08 JUMP JUMPDEST DUP2 EQ PUSH2 0xF0E JUMPI PUSH1 0x0 DUP1 REVERT JUMPDEST POP JUMP JUMPDEST PUSH1 0x0 DUP2 CALLDATALOAD SWAP1 POP PUSH2 0xF20 DUP2 PUSH2 0xEFA JUMP JUMPDEST SWAP3 SWAP2 POP POP JUMP JUMPDEST PUSH1 0x0 DUP1 PUSH1 0x40 DUP4 DUP6 SUB SLT ISZERO PUSH2 0xF3D JUMPI PUSH2 0xF3C PUSH2 0xE33 JUMP JUMPDEST JUMPDEST PUSH1 0x0 PUSH2 0xF4B DUP6 DUP3 DUP7 ADD PUSH2 0xE4F JUMP JUMPDEST SWAP3 POP POP PUSH1 0x20 PUSH2 0xF5C DUP6 DUP3 DUP7 ADD PUSH2 0xF11 JUMP JUMPDEST SWAP2 POP POP SWAP3 POP SWAP3 SWAP1 POP JUMP JUMPDEST PUSH1 0x0 DUP2 ISZERO ISZERO SWAP1 POP SWAP2 SWAP1 POP JUMP JUMPDEST PUSH2 0xF7B DUP2 PUSH2 0xF66 JUMP JUMPDEST DUP3 MSTORE POP POP JUMP JUMPDEST PUSH1 0x0 PUSH1 0x20 DUP3 ADD SWAP1 POP PUSH2 0xF96 PUSH1 0x0 DUP4 ADD DUP5 PUSH2 0xF72 JUMP JUMPDEST SWAP3 SWAP2 POP POP JUMP JUMPDEST PUSH32 0x4C69717569646974792063616E27742072656D6F766500000000000000000000 PUSH1 0x0 DUP3 ADD MSTORE POP JUMP JUMPDEST PUSH1 0x0 PUSH2 0xFD2 PUSH1 0x16 DUP4 PUSH2 0xA8B JUMP JUMPDEST SWAP2 POP PUSH2 0xFDD DUP3 PUSH2 0xF9C JUMP JUMPDEST PUSH1 0x20 DUP3 ADD SWAP1 POP SWAP2 SWAP1 POP JUMP JUMPDEST PUSH1 0x0 PUSH1 0x20 DUP3 ADD SWAP1 POP DUP2 DUP2 SUB PUSH1 0x0 DUP4 ADD MSTORE PUSH2 0x1001 DUP2 PUSH2 0xFC5 JUMP JUMPDEST SWAP1 POP SWAP2 SWAP1 POP JUMP JUMPDEST PUSH32 0x4C697175696469747920616C7265616479206164646564000000000000000000 PUSH1 0x0 DUP3 ADD MSTORE POP JUMP JUMPDEST PUSH1 0x0 PUSH2 0x103E PUSH1 0x17 DUP4 PUSH2 0xA8B JUMP JUMPDEST SWAP2 POP PUSH2 0x1049 DUP3 PUSH2 0x1008 JUMP JUMPDEST PUSH1 0x20 DUP3 ADD SWAP1 POP SWAP2 SWAP1 POP JUMP JUMPDEST PUSH1 0x0 PUSH1 0x20 DUP3 ADD SWAP1 POP DUP2 DUP2 SUB PUSH1 0x0 DUP4 ADD MSTORE PUSH2 0x106D DUP2 PUSH2 0x1031 JUMP JUMPDEST SWAP1 POP SWAP2 SWAP1 POP JUMP JUMPDEST PUSH32 0x7472616E7366657220616D6F756E7420657863656564732062616C616E63652E PUSH1 0x0 DUP3 ADD MSTORE POP JUMP JUMPDEST PUSH1 0x0 PUSH2 0x10AA PUSH1 0x20 DUP4 PUSH2 0xA8B JUMP JUMPDEST SWAP2 POP PUSH2 0x10B5 DUP3 PUSH2 0x1074 JUMP JUMPDEST PUSH1 0x20 DUP3 ADD SWAP1 POP SWAP2 SWAP1 POP JUMP JUMPDEST PUSH1 0x0 PUSH1 0x20 DUP3 ADD SWAP1 POP DUP2 DUP2 SUB PUSH1 0x0 DUP4 ADD MSTORE PUSH2 0x10D9 DUP2 PUSH2 0x109D JUMP JUMPDEST SWAP1 POP SWAP2 SWAP1 POP JUMP JUMPDEST PUSH1 0x0 PUSH1 0x80 DUP3 ADD SWAP1 POP PUSH2 0x10F5 PUSH1 0x0 DUP4 ADD DUP8 PUSH2 0xCAB JUMP JUMPDEST PUSH2 0x1102 PUSH1 0x20 DUP4 ADD DUP7 PUSH2 0xC4B JUMP JUMPDEST PUSH2 0x110F PUSH1 0x40 DUP4 ADD DUP6 PUSH2 0xC4B JUMP JUMPDEST PUSH2 0x111C PUSH1 0x60 DUP4 ADD DUP5 PUSH2 0xCAB JUMP JUMPDEST SWAP6 SWAP5 POP POP POP POP POP JUMP INVALID LOG2 PUSH5 0x6970667358 0x22 SLT KECCAK256 PUSH32 0x2DA7009462DCF289E5C3D1CB72C91447EF705B1DD28D9191CF12BF552568764 PUSH20 0x6F6C634300081800330000000000000000000000 "
        },
        "methodIdentifiers": {
          "addLiquidity(uint32)": "9a540abf",
          "balanceOf(address)": "70a08231",
          "creator()": "02d05d3f",
          "decimals()": "313ce567",
          "isMinter(address)": "aa271e1a",
          "name()": "06fdde03",
          "poolBalance()": "96365d44",
          "removeLiquidity()": "67b9a286",
          "symbol()": "95d89b41",
          "taxBalance()": "aa98e163",
          "totalSupply()": "18160ddd",
          "transfer(address,uint256)": "a9059cbb",
          "transferDelay()": "0a702e8d"
        }
      }
    }
  }
}