{
  "_format": "hh-sol-artifact-1",
  "contractName": "mm314",
  "sourceName": "contracts/mm314.sol",
  "abi": [
    {
      "inputs": [
        {
          "internalType": "uint256",
          "name": "_i_totalSupply",
          "type": "uint256"
        },
        {
          "internalType": "uint256",
          "name": "_creatorInitAmount",
          "type": "uint256"
        }
      ],
      "stateMutability": "payable",
      "type": "constructor"
    },
    {
      "anonymous": false,
      "inputs": [
        {
          "indexed": false,
          "internalType": "uint32",
          "name": "_blockToUnlockLiquidity",
          "type": "uint32"
        },
        {
          "indexed": false,
          "internalType": "uint256",
          "name": "value",
          "type": "uint256"
        }
      ],
      "name": "AddLiquidity",
      "type": "event"
    },
    {
      "anonymous": false,
      "inputs": [
        {
          "indexed": true,
          "internalType": "address",
          "name": "owner",
          "type": "address"
        },
        {
          "indexed": true,
          "internalType": "address",
          "name": "spender",
          "type": "address"
        },
        {
          "indexed": false,
          "internalType": "uint256",
          "name": "value",
          "type": "uint256"
        }
      ],
      "name": "Approval",
      "type": "event"
    },
    {
      "anonymous": false,
      "inputs": [
        {
          "indexed": true,
          "internalType": "address",
          "name": "from",
          "type": "address"
        },
        {
          "indexed": false,
          "internalType": "uint256",
          "name": "tokenValue",
          "type": "uint256"
        },
        {
          "indexed": false,
          "internalType": "uint256",
          "name": "value",
          "type": "uint256"
        }
      ],
      "name": "Bought",
      "type": "event"
    },
    {
      "anonymous": false,
      "inputs": [
        {
          "indexed": true,
          "internalType": "address",
          "name": "from",
          "type": "address"
        },
        {
          "indexed": false,
          "internalType": "uint256",
          "name": "tokenValue",
          "type": "uint256"
        },
        {
          "indexed": false,
          "internalType": "uint256",
          "name": "value",
          "type": "uint256"
        }
      ],
      "name": "Saled",
      "type": "event"
    },
    {
      "anonymous": false,
      "inputs": [
        {
          "indexed": true,
          "internalType": "address",
          "name": "sender",
          "type": "address"
        },
        {
          "indexed": false,
          "internalType": "uint256",
          "name": "amount0In",
          "type": "uint256"
        },
        {
          "indexed": false,
          "internalType": "uint256",
          "name": "amount1In",
          "type": "uint256"
        },
        {
          "indexed": false,
          "internalType": "uint256",
          "name": "amount0Out",
          "type": "uint256"
        },
        {
          "indexed": false,
          "internalType": "uint256",
          "name": "amount1Out",
          "type": "uint256"
        }
      ],
      "name": "Swap",
      "type": "event"
    },
    {
      "anonymous": false,
      "inputs": [
        {
          "indexed": true,
          "internalType": "address",
          "name": "from",
          "type": "address"
        },
        {
          "indexed": true,
          "internalType": "address",
          "name": "to",
          "type": "address"
        },
        {
          "indexed": false,
          "internalType": "uint256",
          "name": "tokenAmount",
          "type": "uint256"
        }
      ],
      "name": "Transfer",
      "type": "event"
    },
    {
      "inputs": [
        {
          "internalType": "uint32",
          "name": "_blockToUnlockLiquidity",
          "type": "uint32"
        }
      ],
      "name": "addLiquidity",
      "outputs": [],
      "stateMutability": "pure",
      "type": "function"
    },
    {
      "inputs": [
        {
          "internalType": "address",
          "name": "",
          "type": "address"
        }
      ],
      "name": "balanceOf",
      "outputs": [
        {
          "internalType": "uint256",
          "name": "",
          "type": "uint256"
        }
      ],
      "stateMutability": "view",
      "type": "function"
    },
    {
      "inputs": [],
      "name": "creator",
      "outputs": [
        {
          "internalType": "address",
          "name": "",
          "type": "address"
        }
      ],
      "stateMutability": "view",
      "type": "function"
    },
    {
      "inputs": [],
      "name": "decimals",
      "outputs": [
        {
          "internalType": "uint8",
          "name": "",
          "type": "uint8"
        }
      ],
      "stateMutability": "view",
      "type": "function"
    },
    {
      "inputs": [
        {
          "internalType": "address",
          "name": "",
          "type": "address"
        }
      ],
      "name": "isMinter",
      "outputs": [
        {
          "internalType": "bool",
          "name": "",
          "type": "bool"
        }
      ],
      "stateMutability": "view",
      "type": "function"
    },
    {
      "inputs": [],
      "name": "name",
      "outputs": [
        {
          "internalType": "string",
          "name": "",
          "type": "string"
        }
      ],
      "stateMutability": "view",
      "type": "function"
    },
    {
      "inputs": [],
      "name": "poolBalance",
      "outputs": [
        {
          "internalType": "uint256",
          "name": "",
          "type": "uint256"
        }
      ],
      "stateMutability": "view",
      "type": "function"
    },
    {
      "inputs": [],
      "name": "removeLiquidity",
      "outputs": [],
      "stateMutability": "pure",
      "type": "function"
    },
    {
      "inputs": [],
      "name": "symbol",
      "outputs": [
        {
          "internalType": "string",
          "name": "",
          "type": "string"
        }
      ],
      "stateMutability": "view",
      "type": "function"
    },
    {
      "inputs": [],
      "name": "taxBalance",
      "outputs": [
        {
          "internalType": "uint256",
          "name": "",
          "type": "uint256"
        }
      ],
      "stateMutability": "view",
      "type": "function"
    },
    {
      "inputs": [],
      "name": "totalSupply",
      "outputs": [
        {
          "internalType": "uint256",
          "name": "",
          "type": "uint256"
        }
      ],
      "stateMutability": "view",
      "type": "function"
    },
    {
      "inputs": [
        {
          "internalType": "address",
          "name": "to",
          "type": "address"
        },
        {
          "internalType": "uint256",
          "name": "tokenValue",
          "type": "uint256"
        }
      ],
      "name": "transfer",
      "outputs": [
        {
          "internalType": "bool",
          "name": "",
          "type": "bool"
        }
      ],
      "stateMutability": "payable",
      "type": "function"
    },
    {
      "inputs": [],
      "name": "transferDelay",
      "outputs": [
        {
          "internalType": "uint256",
          "name": "",
          "type": "uint256"
        }
      ],
      "stateMutability": "view",
      "type": "function"
    },
    {
      "stateMutability": "payable",
      "type": "receive"
    }
  ],
  "bytecode": "0x60c0604052601260ff1660809060ff16815250604051620016f0380380620016f083398181016040528101906200003791906200032a565b600034116200007d576040517f08c379a00000000000000000000000000000000000000000000000000000000081526004016200007490620003d2565b60405180910390fd5b6301406f40821015620000c7576040517f08c379a0000000000000000000000000000000000000000000000000000000008152600401620000be906200046a565b60405180910390fd5b60003090503373ffffffffffffffffffffffffffffffffffffffff1660a08173ffffffffffffffffffffffffffffffffffffffff16815250506200011134620002e360201b60201c565b60028190555060025434620001279190620004bb565b600381905550670de0b6b3a764000083620001439190620004f6565b600181905550670de0b6b3a7640000826200015f9190620004f6565b60008060a05173ffffffffffffffffffffffffffffffffffffffff1673ffffffffffffffffffffffffffffffffffffffff1681526020019081526020016000208190555060008060a05173ffffffffffffffffffffffffffffffffffffffff1673ffffffffffffffffffffffffffffffffffffffff16815260200190815260200160002054600154620001f39190620004bb565b6000808373ffffffffffffffffffffffffffffffffffffffff1673ffffffffffffffffffffffffffffffffffffffff168152602001908152602001600020819055508073ffffffffffffffffffffffffffffffffffffffff168173ffffffffffffffffffffffffffffffffffffffff167fddf252ad1be2c89b69c2b068fc378daa952ba7f163c4a11628f55a4df523b3ef6000808573ffffffffffffffffffffffffffffffffffffffff1673ffffffffffffffffffffffffffffffffffffffff16815260200190815260200160002054604051620002d2919062000552565b60405180910390a35050506200056f565b6000919050565b600080fd5b6000819050919050565b6200030481620002ef565b81146200031057600080fd5b50565b6000815190506200032481620002f9565b92915050565b60008060408385031215620003445762000343620002ea565b5b6000620003548582860162000313565b9250506020620003678582860162000313565b9150509250929050565b600082825260208201905092915050565b7f6e65656420737570706c79206d61696e20636f696e2076616c75652e31310000600082015250565b6000620003ba601e8362000371565b9150620003c78262000382565b602082019050919050565b60006020820190508181036000830152620003ed81620003ab565b9050919050565b7f6e656564205f695f746f74616c537570706c7920657175616c206f72206d6f7260008201527f65207468616e2032313030303030300000000000000000000000000000000000602082015250565b600062000452602f8362000371565b91506200045f82620003f4565b604082019050919050565b60006020820190508181036000830152620004858162000443565b9050919050565b7f4e487b7100000000000000000000000000000000000000000000000000000000600052601160045260246000fd5b6000620004c882620002ef565b9150620004d583620002ef565b9250828203905081811115620004f057620004ef6200048c565b5b92915050565b60006200050382620002ef565b91506200051083620002ef565b92508282026200052081620002ef565b915082820484148315176200053a57620005396200048c565b5b5092915050565b6200054c81620002ef565b82525050565b600060208201905062000569600083018462000541565b92915050565b60805160a05161115b620005956000396000610579015260006105e5015261115b6000f3fe6080604052600436106100c65760003560e01c806370a082311161007f5780639a540abf116100595780639a540abf146104af578063a9059cbb146104d8578063aa271e1a14610508578063aa98e1631461054557610329565b806370a082311461041c57806395d89b411461045957806396365d441461048457610329565b806302d05d3f1461032e57806306fdde03146103595780630a702e8d1461038457806318160ddd146103af578063313ce567146103da57806367b9a2861461040557610329565b36610329576000341161010e576040517f08c379a000000000000000000000000000000000000000000000000000000000815260040161010590610ae8565b60405180910390fd5b600061011934610570565b9050600081346101299190610b41565b905060008160035461013b9190610b75565b826000803073ffffffffffffffffffffffffffffffffffffffff1673ffffffffffffffffffffffffffffffffffffffff168152602001908152602001600020546101859190610ba9565b61018f9190610c1a565b9050806000803073ffffffffffffffffffffffffffffffffffffffff1673ffffffffffffffffffffffffffffffffffffffff16815260200190815260200160002060008282546101df9190610b41565b92505081905550806000803373ffffffffffffffffffffffffffffffffffffffff1673ffffffffffffffffffffffffffffffffffffffff16815260200190815260200160002060008282546102349190610b75565b92505081905550816003600082825461024d9190610b75565b9250508190555082600260008282546102669190610b75565b925050819055503373ffffffffffffffffffffffffffffffffffffffff163073ffffffffffffffffffffffffffffffffffffffff167fddf252ad1be2c89b69c2b068fc378daa952ba7f163c4a11628f55a4df523b3ef836040516102ca9190610c5a565b60405180910390a33373ffffffffffffffffffffffffffffffffffffffff167f49926bbebe8474393f434dfa4f78694c0923efa07d19f2284518bfabd06eb737346000808560405161031f9493929190610cba565b60405180910390a2005b600080fd5b34801561033a57600080fd5b50610343610577565b6040516103509190610d40565b60405180910390f35b34801561036557600080fd5b5061036e61059b565b60405161037b9190610dda565b60405180910390f35b34801561039057600080fd5b506103996105d4565b6040516103a69190610c5a565b60405180910390f35b3480156103bb57600080fd5b506103c46105d9565b6040516103d19190610c5a565b60405180910390f35b3480156103e657600080fd5b506103ef6105e3565b6040516103fc9190610e18565b60405180910390f35b34801561041157600080fd5b5061041a610607565b005b34801561042857600080fd5b50610443600480360381019061043e9190610e64565b61064d565b6040516104509190610c5a565b60405180910390f35b34801561046557600080fd5b5061046e610665565b60405161047b9190610dda565b60405180910390f35b34801561049057600080fd5b5061049961069e565b6040516104a69190610c5a565b60405180910390f35b3480156104bb57600080fd5b506104d660048036038101906104d19190610ecd565b6106a4565b005b6104f260048036038101906104ed9190610f26565b6106eb565b6040516104ff9190610f81565b60405180910390f35b34801561051457600080fd5b5061052f600480360381019061052a9190610e64565b610a1f565b60405161053c9190610f81565b60405180910390f35b34801561055157600080fd5b5061055a610a3f565b6040516105679190610c5a565b60405180910390f35b6000919050565b7f000000000000000000000000000000000000000000000000000000000000000081565b6040518060400160405280600581526020017f4d4d33313400000000000000000000000000000000000000000000000000000081525081565b603c81565b6000600154905090565b7f000000000000000000000000000000000000000000000000000000000000000081565b600260011461064b576040517f08c379a000000000000000000000000000000000000000000000000000000000815260040161064290610fe8565b60405180910390fd5b565b60006020528060005260406000206000915090505481565b6040518060400160405280600581526020017f4d4d33313400000000000000000000000000000000000000000000000000000081525081565b60035481565b60026001146106e8576040517f08c379a00000000000000000000000000000000000000000000000000000000081526004016106df90611054565b60405180910390fd5b50565b60008073ffffffffffffffffffffffffffffffffffffffff168373ffffffffffffffffffffffffffffffffffffffff160361072557600080fd5b816000803373ffffffffffffffffffffffffffffffffffffffff1673ffffffffffffffffffffffffffffffffffffffff1681526020019081526020016000205410156107a6576040517f08c379a000000000000000000000000000000000000000000000000000000000815260040161079d906110c0565b60405180910390fd5b816000803373ffffffffffffffffffffffffffffffffffffffff1673ffffffffffffffffffffffffffffffffffffffff16815260200190815260200160002060008282546107f49190610b41565b92505081905550816000808573ffffffffffffffffffffffffffffffffffffffff1673ffffffffffffffffffffffffffffffffffffffff16815260200190815260200160002060008282546108499190610b75565b925050819055508273ffffffffffffffffffffffffffffffffffffffff163373ffffffffffffffffffffffffffffffffffffffff167fddf252ad1be2c89b69c2b068fc378daa952ba7f163c4a11628f55a4df523b3ef846040516108ad9190610c5a565b60405180910390a33073ffffffffffffffffffffffffffffffffffffffff168373ffffffffffffffffffffffffffffffffffffffff1603610a15576000826108f3610a45565b6108fd9190610b75565b9050600081846003546109109190610ba9565b61091a9190610c1a565b9050600061092782610570565b905080826109359190610b41565b91503373ffffffffffffffffffffffffffffffffffffffff166108fc839081150290604051600060405180830381858888f1935050505015801561097d573d6000803e3d6000fd5b50808261098a9190610b75565b6003600082825461099b9190610b41565b9250508190555080600260008282546109b49190610b75565b925050819055503373ffffffffffffffffffffffffffffffffffffffff167f49926bbebe8474393f434dfa4f78694c0923efa07d19f2284518bfabd06eb737600087856000604051610a0994939291906110e0565b60405180910390a25050505b6001905092915050565b60046020528060005260406000206000915054906101000a900460ff1681565b60025481565b60008060003073ffffffffffffffffffffffffffffffffffffffff1673ffffffffffffffffffffffffffffffffffffffff16815260200190815260200160002054905090565b600082825260208201905092915050565b7f6e656564206d6f7265207468616e207a65726f2e000000000000000000000000600082015250565b6000610ad2601483610a8b565b9150610add82610a9c565b602082019050919050565b60006020820190508181036000830152610b0181610ac5565b9050919050565b6000819050919050565b7f4e487b7100000000000000000000000000000000000000000000000000000000600052601160045260246000fd5b6000610b4c82610b08565b9150610b5783610b08565b9250828203905081811115610b6f57610b6e610b12565b5b92915050565b6000610b8082610b08565b9150610b8b83610b08565b9250828201905080821115610ba357610ba2610b12565b5b92915050565b6000610bb482610b08565b9150610bbf83610b08565b9250828202610bcd81610b08565b91508282048414831517610be457610be3610b12565b5b5092915050565b7f4e487b7100000000000000000000000000000000000000000000000000000000600052601260045260246000fd5b6000610c2582610b08565b9150610c3083610b08565b925082610c4057610c3f610beb565b5b828204905092915050565b610c5481610b08565b82525050565b6000602082019050610c6f6000830184610c4b565b92915050565b6000819050919050565b6000819050919050565b6000610ca4610c9f610c9a84610c75565b610c7f565b610b08565b9050919050565b610cb481610c89565b82525050565b6000608082019050610ccf6000830187610c4b565b610cdc6020830186610cab565b610ce96040830185610cab565b610cf66060830184610c4b565b95945050505050565b600073ffffffffffffffffffffffffffffffffffffffff82169050919050565b6000610d2a82610cff565b9050919050565b610d3a81610d1f565b82525050565b6000602082019050610d556000830184610d31565b92915050565b600081519050919050565b60005b83811015610d84578082015181840152602081019050610d69565b60008484015250505050565b6000601f19601f8301169050919050565b6000610dac82610d5b565b610db68185610a8b565b9350610dc6818560208601610d66565b610dcf81610d90565b840191505092915050565b60006020820190508181036000830152610df48184610da1565b905092915050565b600060ff82169050919050565b610e1281610dfc565b82525050565b6000602082019050610e2d6000830184610e09565b92915050565b600080fd5b610e4181610d1f565b8114610e4c57600080fd5b50565b600081359050610e5e81610e38565b92915050565b600060208284031215610e7a57610e79610e33565b5b6000610e8884828501610e4f565b91505092915050565b600063ffffffff82169050919050565b610eaa81610e91565b8114610eb557600080fd5b50565b600081359050610ec781610ea1565b92915050565b600060208284031215610ee357610ee2610e33565b5b6000610ef184828501610eb8565b91505092915050565b610f0381610b08565b8114610f0e57600080fd5b50565b600081359050610f2081610efa565b92915050565b60008060408385031215610f3d57610f3c610e33565b5b6000610f4b85828601610e4f565b9250506020610f5c85828601610f11565b9150509250929050565b60008115159050919050565b610f7b81610f66565b82525050565b6000602082019050610f966000830184610f72565b92915050565b7f4c69717569646974792063616e27742072656d6f766500000000000000000000600082015250565b6000610fd2601683610a8b565b9150610fdd82610f9c565b602082019050919050565b6000602082019050818103600083015261100181610fc5565b9050919050565b7f4c697175696469747920616c7265616479206164646564000000000000000000600082015250565b600061103e601783610a8b565b915061104982611008565b602082019050919050565b6000602082019050818103600083015261106d81611031565b9050919050565b7f7472616e7366657220616d6f756e7420657863656564732062616c616e63652e600082015250565b60006110aa602083610a8b565b91506110b582611074565b602082019050919050565b600060208201905081810360008301526110d98161109d565b9050919050565b60006080820190506110f56000830187610cab565b6111026020830186610c4b565b61110f6040830185610c4b565b61111c6060830184610cab565b9594505050505056fea26469706673582212207f02da7009462dcf289e5c3d1cb72c91447ef705b1dd28d9191cf12bf552568764736f6c63430008180033",
  "linkReferences": {},
  "deployedLinkReferences": {}
}