{
  "_format": "hh-sol-artifact-1",
  "contractName": "mm314",
  "sourceName": "contracts/mm314.sol",
  "abi": [
    {
      "inputs": [
        {
          "internalType": "uint256",
          "name": "_i_totalSupply",
          "type": "uint256"
        },
        {
          "internalType": "uint256",
          "name": "_creatorInitAmount",
          "type": "uint256"
        }
      ],
      "stateMutability": "payable",
      "type": "constructor"
    },
    {
      "anonymous": false,
      "inputs": [
        {
          "indexed": false,
          "internalType": "uint32",
          "name": "_blockToUnlockLiquidity",
          "type": "uint32"
        },
        {
          "indexed": false,
          "internalType": "uint256",
          "name": "value",
          "type": "uint256"
        }
      ],
      "name": "AddLiquidity",
      "type": "event"
    },
    {
      "anonymous": false,
      "inputs": [
        {
          "indexed": true,
          "internalType": "address",
          "name": "owner",
          "type": "address"
        },
        {
          "indexed": true,
          "internalType": "address",
          "name": "spender",
          "type": "address"
        },
        {
          "indexed": false,
          "internalType": "uint256",
          "name": "value",
          "type": "uint256"
        }
      ],
      "name": "Approval",
      "type": "event"
    },
    {
      "anonymous": false,
      "inputs": [
        {
          "indexed": true,
          "internalType": "address",
          "name": "from",
          "type": "address"
        },
        {
          "indexed": false,
          "internalType": "uint256",
          "name": "tokenValue",
          "type": "uint256"
        },
        {
          "indexed": false,
          "internalType": "uint256",
          "name": "value",
          "type": "uint256"
        }
      ],
      "name": "Bought",
      "type": "event"
    },
    {
      "anonymous": false,
      "inputs": [
        {
          "indexed": true,
          "internalType": "address",
          "name": "from",
          "type": "address"
        },
        {
          "indexed": false,
          "internalType": "uint256",
          "name": "tokenValue",
          "type": "uint256"
        },
        {
          "indexed": false,
          "internalType": "uint256",
          "name": "value",
          "type": "uint256"
        }
      ],
      "name": "Saled",
      "type": "event"
    },
    {
      "anonymous": false,
      "inputs": [
        {
          "indexed": true,
          "internalType": "address",
          "name": "sender",
          "type": "address"
        },
        {
          "indexed": false,
          "internalType": "uint256",
          "name": "amount0In",
          "type": "uint256"
        },
        {
          "indexed": false,
          "internalType": "uint256",
          "name": "amount1In",
          "type": "uint256"
        },
        {
          "indexed": false,
          "internalType": "uint256",
          "name": "amount0Out",
          "type": "uint256"
        },
        {
          "indexed": false,
          "internalType": "uint256",
          "name": "amount1Out",
          "type": "uint256"
        }
      ],
      "name": "Swap",
      "type": "event"
    },
    {
      "anonymous": false,
      "inputs": [
        {
          "indexed": true,
          "internalType": "address",
          "name": "from",
          "type": "address"
        },
        {
          "indexed": true,
          "internalType": "address",
          "name": "to",
          "type": "address"
        },
        {
          "indexed": false,
          "internalType": "uint256",
          "name": "tokenAmount",
          "type": "uint256"
        }
      ],
      "name": "Transfer",
      "type": "event"
    },
    {
      "inputs": [
        {
          "internalType": "uint32",
          "name": "_blockToUnlockLiquidity",
          "type": "uint32"
        }
      ],
      "name": "addLiquidity",
      "outputs": [],
      "stateMutability": "pure",
      "type": "function"
    },
    {
      "inputs": [
        {
          "internalType": "address",
          "name": "",
          "type": "address"
        }
      ],
      "name": "balanceOf",
      "outputs": [
        {
          "internalType": "uint256",
          "name": "",
          "type": "uint256"
        }
      ],
      "stateMutability": "view",
      "type": "function"
    },
    {
      "inputs": [],
      "name": "creator",
      "outputs": [
        {
          "internalType": "address",
          "name": "",
          "type": "address"
        }
      ],
      "stateMutability": "view",
      "type": "function"
    },
    {
      "inputs": [],
      "name": "decimals",
      "outputs": [
        {
          "internalType": "uint8",
          "name": "",
          "type": "uint8"
        }
      ],
      "stateMutability": "view",
      "type": "function"
    },
    {
      "inputs": [
        {
          "internalType": "address",
          "name": "",
          "type": "address"
        }
      ],
      "name": "isMinter",
      "outputs": [
        {
          "internalType": "bool",
          "name": "",
          "type": "bool"
        }
      ],
      "stateMutability": "view",
      "type": "function"
    },
    {
      "inputs": [],
      "name": "name",
      "outputs": [
        {
          "internalType": "string",
          "name": "",
          "type": "string"
        }
      ],
      "stateMutability": "view",
      "type": "function"
    },
    {
      "inputs": [],
      "name": "poolBalance",
      "outputs": [
        {
          "internalType": "uint256",
          "name": "",
          "type": "uint256"
        }
      ],
      "stateMutability": "view",
      "type": "function"
    },
    {
      "inputs": [],
      "name": "removeLiquidity",
      "outputs": [],
      "stateMutability": "pure",
      "type": "function"
    },
    {
      "inputs": [],
      "name": "symbol",
      "outputs": [
        {
          "internalType": "string",
          "name": "",
          "type": "string"
        }
      ],
      "stateMutability": "view",
      "type": "function"
    },
    {
      "inputs": [],
      "name": "taxBalance",
      "outputs": [
        {
          "internalType": "uint256",
          "name": "",
          "type": "uint256"
        }
      ],
      "stateMutability": "view",
      "type": "function"
    },
    {
      "inputs": [],
      "name": "totalSupply",
      "outputs": [
        {
          "internalType": "uint256",
          "name": "",
          "type": "uint256"
        }
      ],
      "stateMutability": "view",
      "type": "function"
    },
    {
      "inputs": [
        {
          "internalType": "address",
          "name": "to",
          "type": "address"
        },
        {
          "internalType": "uint256",
          "name": "tokenValue",
          "type": "uint256"
        }
      ],
      "name": "transfer",
      "outputs": [
        {
          "internalType": "bool",
          "name": "",
          "type": "bool"
        }
      ],
      "stateMutability": "payable",
      "type": "function"
    },
    {
      "inputs": [],
      "name": "transferDelay",
      "outputs": [
        {
          "internalType": "uint256",
          "name": "",
          "type": "uint256"
        }
      ],
      "stateMutability": "view",
      "type": "function"
    },
    {
      "stateMutability": "payable",
      "type": "receive"
    }
  ],
  "bytecode": "0x60c0604052601260ff1660809060ff168152506040516200183c3803806200183c8339818101604052810190620000379190620003f3565b600034116200007d576040517f08c379a000000000000000000000000000000000000000000000000000000000815260040162000074906200049b565b60405180910390fd5b6301406f40821015620000c7576040517f08c379a0000000000000000000000000000000000000000000000000000000008152600401620000be9062000533565b60405180910390fd5b60003090503373ffffffffffffffffffffffffffffffffffffffff1660a08173ffffffffffffffffffffffffffffffffffffffff168152505062000111346200038c60201b60201c565b6002819055506002543462000127919062000584565b600381905550670de0b6b3a764000083620001439190620005bf565b600181905550670de0b6b3a7640000826200015f9190620005bf565b60008060a05173ffffffffffffffffffffffffffffffffffffffff1673ffffffffffffffffffffffffffffffffffffffff1681526020019081526020016000208190555060008060a05173ffffffffffffffffffffffffffffffffffffffff1673ffffffffffffffffffffffffffffffffffffffff16815260200190815260200160002054600154620001f3919062000584565b6000808373ffffffffffffffffffffffffffffffffffffffff1673ffffffffffffffffffffffffffffffffffffffff1681526020019081526020016000208190555060a05173ffffffffffffffffffffffffffffffffffffffff168173ffffffffffffffffffffffffffffffffffffffff167fddf252ad1be2c89b69c2b068fc378daa952ba7f163c4a11628f55a4df523b3ef60008060a05173ffffffffffffffffffffffffffffffffffffffff1673ffffffffffffffffffffffffffffffffffffffff16815260200190815260200160002054604051620002d691906200061b565b60405180910390a38073ffffffffffffffffffffffffffffffffffffffff168173ffffffffffffffffffffffffffffffffffffffff167fddf252ad1be2c89b69c2b068fc378daa952ba7f163c4a11628f55a4df523b3ef6000808573ffffffffffffffffffffffffffffffffffffffff1673ffffffffffffffffffffffffffffffffffffffff168152602001908152602001600020546040516200037b91906200061b565b60405180910390a35050506200069f565b60006103e8600183620003a09190620005bf565b620003ac919062000667565b9050919050565b600080fd5b6000819050919050565b620003cd81620003b8565b8114620003d957600080fd5b50565b600081519050620003ed81620003c2565b92915050565b600080604083850312156200040d576200040c620003b3565b5b60006200041d85828601620003dc565b92505060206200043085828601620003dc565b9150509250929050565b600082825260208201905092915050565b7f6e65656420737570706c79206d61696e20636f696e2076616c75652e31310000600082015250565b600062000483601e836200043a565b915062000490826200044b565b602082019050919050565b60006020820190508181036000830152620004b68162000474565b9050919050565b7f6e656564205f695f746f74616c537570706c7920657175616c206f72206d6f7260008201527f65207468616e2032313030303030300000000000000000000000000000000000602082015250565b60006200051b602f836200043a565b91506200052882620004bd565b604082019050919050565b600060208201905081810360008301526200054e816200050c565b9050919050565b7f4e487b7100000000000000000000000000000000000000000000000000000000600052601160045260246000fd5b60006200059182620003b8565b91506200059e83620003b8565b9250828203905081811115620005b957620005b862000555565b5b92915050565b6000620005cc82620003b8565b9150620005d983620003b8565b9250828202620005e981620003b8565b9150828204841483151762000603576200060262000555565b5b5092915050565b6200061581620003b8565b82525050565b60006020820190506200063260008301846200060a565b92915050565b7f4e487b7100000000000000000000000000000000000000000000000000000000600052601260045260246000fd5b60006200067482620003b8565b91506200068183620003b8565b92508262000694576200069362000638565b5b828204905092915050565b60805160a051611177620006c560003960006105950152600061060101526111776000f3fe6080604052600436106100c65760003560e01c806370a082311161007f5780639a540abf116100595780639a540abf146104af578063a9059cbb146104d8578063aa271e1a14610508578063aa98e1631461054557610329565b806370a082311461041c57806395d89b411461045957806396365d441461048457610329565b806302d05d3f1461032e57806306fdde03146103595780630a702e8d1461038457806318160ddd146103af578063313ce567146103da57806367b9a2861461040557610329565b36610329576000341161010e576040517f08c379a000000000000000000000000000000000000000000000000000000000815260040161010590610b04565b60405180910390fd5b600061011934610570565b9050600081346101299190610b5d565b905060008160035461013b9190610b91565b826000803073ffffffffffffffffffffffffffffffffffffffff1673ffffffffffffffffffffffffffffffffffffffff168152602001908152602001600020546101859190610bc5565b61018f9190610c36565b9050806000803073ffffffffffffffffffffffffffffffffffffffff1673ffffffffffffffffffffffffffffffffffffffff16815260200190815260200160002060008282546101df9190610b5d565b92505081905550806000803373ffffffffffffffffffffffffffffffffffffffff1673ffffffffffffffffffffffffffffffffffffffff16815260200190815260200160002060008282546102349190610b91565b92505081905550816003600082825461024d9190610b91565b9250508190555082600260008282546102669190610b91565b925050819055503373ffffffffffffffffffffffffffffffffffffffff163073ffffffffffffffffffffffffffffffffffffffff167fddf252ad1be2c89b69c2b068fc378daa952ba7f163c4a11628f55a4df523b3ef836040516102ca9190610c76565b60405180910390a33373ffffffffffffffffffffffffffffffffffffffff167f49926bbebe8474393f434dfa4f78694c0923efa07d19f2284518bfabd06eb737346000808560405161031f9493929190610cd6565b60405180910390a2005b600080fd5b34801561033a57600080fd5b50610343610593565b6040516103509190610d5c565b60405180910390f35b34801561036557600080fd5b5061036e6105b7565b60405161037b9190610df6565b60405180910390f35b34801561039057600080fd5b506103996105f0565b6040516103a69190610c76565b60405180910390f35b3480156103bb57600080fd5b506103c46105f5565b6040516103d19190610c76565b60405180910390f35b3480156103e657600080fd5b506103ef6105ff565b6040516103fc9190610e34565b60405180910390f35b34801561041157600080fd5b5061041a610623565b005b34801561042857600080fd5b50610443600480360381019061043e9190610e80565b610669565b6040516104509190610c76565b60405180910390f35b34801561046557600080fd5b5061046e610681565b60405161047b9190610df6565b60405180910390f35b34801561049057600080fd5b506104996106ba565b6040516104a69190610c76565b60405180910390f35b3480156104bb57600080fd5b506104d660048036038101906104d19190610ee9565b6106c0565b005b6104f260048036038101906104ed9190610f42565b610707565b6040516104ff9190610f9d565b60405180910390f35b34801561051457600080fd5b5061052f600480360381019061052a9190610e80565b610a3b565b60405161053c9190610f9d565b60405180910390f35b34801561055157600080fd5b5061055a610a5b565b6040516105679190610c76565b60405180910390f35b60006103e86001836105829190610bc5565b61058c9190610c36565b9050919050565b7f000000000000000000000000000000000000000000000000000000000000000081565b6040518060400160405280600581526020017f4d4d33313400000000000000000000000000000000000000000000000000000081525081565b603c81565b6000600154905090565b7f000000000000000000000000000000000000000000000000000000000000000081565b6002600114610667576040517f08c379a000000000000000000000000000000000000000000000000000000000815260040161065e90611004565b60405180910390fd5b565b60006020528060005260406000206000915090505481565b6040518060400160405280600581526020017f4d4d33313400000000000000000000000000000000000000000000000000000081525081565b60035481565b6002600114610704576040517f08c379a00000000000000000000000000000000000000000000000000000000081526004016106fb90611070565b60405180910390fd5b50565b60008073ffffffffffffffffffffffffffffffffffffffff168373ffffffffffffffffffffffffffffffffffffffff160361074157600080fd5b816000803373ffffffffffffffffffffffffffffffffffffffff1673ffffffffffffffffffffffffffffffffffffffff1681526020019081526020016000205410156107c2576040517f08c379a00000000000000000000000000000000000000000000000000000000081526004016107b9906110dc565b60405180910390fd5b816000803373ffffffffffffffffffffffffffffffffffffffff1673ffffffffffffffffffffffffffffffffffffffff16815260200190815260200160002060008282546108109190610b5d565b92505081905550816000808573ffffffffffffffffffffffffffffffffffffffff1673ffffffffffffffffffffffffffffffffffffffff16815260200190815260200160002060008282546108659190610b91565b925050819055508273ffffffffffffffffffffffffffffffffffffffff163373ffffffffffffffffffffffffffffffffffffffff167fddf252ad1be2c89b69c2b068fc378daa952ba7f163c4a11628f55a4df523b3ef846040516108c99190610c76565b60405180910390a33073ffffffffffffffffffffffffffffffffffffffff168373ffffffffffffffffffffffffffffffffffffffff1603610a315760008261090f610a61565b6109199190610b91565b90506000818460035461092c9190610bc5565b6109369190610c36565b9050600061094382610570565b905080826109519190610b5d565b91503373ffffffffffffffffffffffffffffffffffffffff166108fc839081150290604051600060405180830381858888f19350505050158015610999573d6000803e3d6000fd5b5080826109a69190610b91565b600360008282546109b79190610b5d565b9250508190555080600260008282546109d09190610b91565b925050819055503373ffffffffffffffffffffffffffffffffffffffff167f49926bbebe8474393f434dfa4f78694c0923efa07d19f2284518bfabd06eb737600087856000604051610a2594939291906110fc565b60405180910390a25050505b6001905092915050565b60046020528060005260406000206000915054906101000a900460ff1681565b60025481565b60008060003073ffffffffffffffffffffffffffffffffffffffff1673ffffffffffffffffffffffffffffffffffffffff16815260200190815260200160002054905090565b600082825260208201905092915050565b7f6e656564206d6f7265207468616e207a65726f2e000000000000000000000000600082015250565b6000610aee601483610aa7565b9150610af982610ab8565b602082019050919050565b60006020820190508181036000830152610b1d81610ae1565b9050919050565b6000819050919050565b7f4e487b7100000000000000000000000000000000000000000000000000000000600052601160045260246000fd5b6000610b6882610b24565b9150610b7383610b24565b9250828203905081811115610b8b57610b8a610b2e565b5b92915050565b6000610b9c82610b24565b9150610ba783610b24565b9250828201905080821115610bbf57610bbe610b2e565b5b92915050565b6000610bd082610b24565b9150610bdb83610b24565b9250828202610be981610b24565b91508282048414831517610c0057610bff610b2e565b5b5092915050565b7f4e487b7100000000000000000000000000000000000000000000000000000000600052601260045260246000fd5b6000610c4182610b24565b9150610c4c83610b24565b925082610c5c57610c5b610c07565b5b828204905092915050565b610c7081610b24565b82525050565b6000602082019050610c8b6000830184610c67565b92915050565b6000819050919050565b6000819050919050565b6000610cc0610cbb610cb684610c91565b610c9b565b610b24565b9050919050565b610cd081610ca5565b82525050565b6000608082019050610ceb6000830187610c67565b610cf86020830186610cc7565b610d056040830185610cc7565b610d126060830184610c67565b95945050505050565b600073ffffffffffffffffffffffffffffffffffffffff82169050919050565b6000610d4682610d1b565b9050919050565b610d5681610d3b565b82525050565b6000602082019050610d716000830184610d4d565b92915050565b600081519050919050565b60005b83811015610da0578082015181840152602081019050610d85565b60008484015250505050565b6000601f19601f8301169050919050565b6000610dc882610d77565b610dd28185610aa7565b9350610de2818560208601610d82565b610deb81610dac565b840191505092915050565b60006020820190508181036000830152610e108184610dbd565b905092915050565b600060ff82169050919050565b610e2e81610e18565b82525050565b6000602082019050610e496000830184610e25565b92915050565b600080fd5b610e5d81610d3b565b8114610e6857600080fd5b50565b600081359050610e7a81610e54565b92915050565b600060208284031215610e9657610e95610e4f565b5b6000610ea484828501610e6b565b91505092915050565b600063ffffffff82169050919050565b610ec681610ead565b8114610ed157600080fd5b50565b600081359050610ee381610ebd565b92915050565b600060208284031215610eff57610efe610e4f565b5b6000610f0d84828501610ed4565b91505092915050565b610f1f81610b24565b8114610f2a57600080fd5b50565b600081359050610f3c81610f16565b92915050565b60008060408385031215610f5957610f58610e4f565b5b6000610f6785828601610e6b565b9250506020610f7885828601610f2d565b9150509250929050565b60008115159050919050565b610f9781610f82565b82525050565b6000602082019050610fb26000830184610f8e565b92915050565b7f4c69717569646974792063616e27742072656d6f766500000000000000000000600082015250565b6000610fee601683610aa7565b9150610ff982610fb8565b602082019050919050565b6000602082019050818103600083015261101d81610fe1565b9050919050565b7f4c697175696469747920616c7265616479206164646564000000000000000000600082015250565b600061105a601783610aa7565b915061106582611024565b602082019050919050565b600060208201905081810360008301526110898161104d565b9050919050565b7f7472616e7366657220616d6f756e7420657863656564732062616c616e63652e600082015250565b60006110c6602083610aa7565b91506110d182611090565b602082019050919050565b600060208201905081810360008301526110f5816110b9565b9050919050565b60006080820190506111116000830187610cc7565b61111e6020830186610c67565b61112b6040830185610c67565b6111386060830184610cc7565b9594505050505056fea26469706673582212206d8ba127ead612f6181d6e716efbe0a2b3f93f452f08c3a258331bc1e3e4f49564736f6c63430008180033",
  "linkReferences": {},
  "deployedLinkReferences": {}
}