{
  "_format": "hh-sol-artifact-1",
  "contractName": "mm314",
  "sourceName": "contracts/mm314.sol",
  "abi": [
    {
      "inputs": [
        {
          "internalType": "uint256",
          "name": "_i_totalSupply",
          "type": "uint256"
        },
        {
          "internalType": "uint256",
          "name": "_creatorInitAmount",
          "type": "uint256"
        }
      ],
      "stateMutability": "payable",
      "type": "constructor"
    },
    {
      "anonymous": false,
      "inputs": [
        {
          "indexed": true,
          "internalType": "address",
          "name": "owner",
          "type": "address"
        },
        {
          "indexed": true,
          "internalType": "address",
          "name": "spender",
          "type": "address"
        },
        {
          "indexed": false,
          "internalType": "uint256",
          "name": "value",
          "type": "uint256"
        }
      ],
      "name": "Approval",
      "type": "event"
    },
    {
      "anonymous": false,
      "inputs": [
        {
          "indexed": true,
          "internalType": "address",
          "name": "from",
          "type": "address"
        },
        {
          "indexed": false,
          "internalType": "uint256",
          "name": "tokenValue",
          "type": "uint256"
        },
        {
          "indexed": false,
          "internalType": "uint256",
          "name": "value",
          "type": "uint256"
        }
      ],
      "name": "Bought",
      "type": "event"
    },
    {
      "anonymous": false,
      "inputs": [
        {
          "indexed": true,
          "internalType": "address",
          "name": "from",
          "type": "address"
        },
        {
          "indexed": false,
          "internalType": "uint256",
          "name": "tokenValue",
          "type": "uint256"
        },
        {
          "indexed": false,
          "internalType": "uint256",
          "name": "value",
          "type": "uint256"
        }
      ],
      "name": "Saled",
      "type": "event"
    },
    {
      "anonymous": false,
      "inputs": [
        {
          "indexed": true,
          "internalType": "address",
          "name": "from",
          "type": "address"
        },
        {
          "indexed": true,
          "internalType": "address",
          "name": "to",
          "type": "address"
        },
        {
          "indexed": false,
          "internalType": "uint256",
          "name": "tokenAmount",
          "type": "uint256"
        }
      ],
      "name": "Transfer",
      "type": "event"
    },
    {
      "inputs": [
        {
          "internalType": "address",
          "name": "",
          "type": "address"
        }
      ],
      "name": "balanceOf",
      "outputs": [
        {
          "internalType": "uint256",
          "name": "",
          "type": "uint256"
        }
      ],
      "stateMutability": "view",
      "type": "function"
    },
    {
      "inputs": [],
      "name": "balanceOfPool",
      "outputs": [
        {
          "internalType": "uint256",
          "name": "",
          "type": "uint256"
        }
      ],
      "stateMutability": "view",
      "type": "function"
    },
    {
      "inputs": [],
      "name": "creator",
      "outputs": [
        {
          "internalType": "address",
          "name": "",
          "type": "address"
        }
      ],
      "stateMutability": "view",
      "type": "function"
    },
    {
      "inputs": [],
      "name": "decimals",
      "outputs": [
        {
          "internalType": "uint8",
          "name": "",
          "type": "uint8"
        }
      ],
      "stateMutability": "view",
      "type": "function"
    },
    {
      "inputs": [
        {
          "internalType": "address",
          "name": "",
          "type": "address"
        }
      ],
      "name": "isMinter",
      "outputs": [
        {
          "internalType": "bool",
          "name": "",
          "type": "bool"
        }
      ],
      "stateMutability": "view",
      "type": "function"
    },
    {
      "inputs": [],
      "name": "name",
      "outputs": [
        {
          "internalType": "string",
          "name": "",
          "type": "string"
        }
      ],
      "stateMutability": "view",
      "type": "function"
    },
    {
      "inputs": [],
      "name": "symbol",
      "outputs": [
        {
          "internalType": "string",
          "name": "",
          "type": "string"
        }
      ],
      "stateMutability": "view",
      "type": "function"
    },
    {
      "inputs": [],
      "name": "totalSupply",
      "outputs": [
        {
          "internalType": "uint256",
          "name": "",
          "type": "uint256"
        }
      ],
      "stateMutability": "view",
      "type": "function"
    },
    {
      "inputs": [
        {
          "internalType": "address",
          "name": "to",
          "type": "address"
        },
        {
          "internalType": "uint256",
          "name": "tokenValue",
          "type": "uint256"
        }
      ],
      "name": "transfer",
      "outputs": [
        {
          "internalType": "bool",
          "name": "",
          "type": "bool"
        }
      ],
      "stateMutability": "payable",
      "type": "function"
    },
    {
      "inputs": [],
      "name": "transferDelay",
      "outputs": [
        {
          "internalType": "uint256",
          "name": "",
          "type": "uint256"
        }
      ],
      "stateMutability": "view",
      "type": "function"
    },
    {
      "stateMutability": "payable",
      "type": "receive"
    }
  ],
  "bytecode": "0x60c0604052601260ff1660809060ff16815250604051620012283803806200122883398181016040528101906200003791906200023d565b600034116200007d576040517f08c379a00000000000000000000000000000000000000000000000000000000081526004016200007490620002e5565b60405180910390fd5b6301406f40821015620000c7576040517f08c379a0000000000000000000000000000000000000000000000000000000008152600401620000be906200037d565b60405180910390fd5b816103e882620000d89190620003ce565b11156200011c576040517f08c379a000000000000000000000000000000000000000000000000000000000815260040162000113906200048f565b60405180910390fd5b3373ffffffffffffffffffffffffffffffffffffffff1660a08173ffffffffffffffffffffffffffffffffffffffff168152505034600281905550816001819055508060008060a05173ffffffffffffffffffffffffffffffffffffffff1673ffffffffffffffffffffffffffffffffffffffff1681526020019081526020016000208190555080600154620001b39190620004b1565b6000803073ffffffffffffffffffffffffffffffffffffffff1673ffffffffffffffffffffffffffffffffffffffff168152602001908152602001600020819055505050620004ec565b600080fd5b6000819050919050565b620002178162000202565b81146200022357600080fd5b50565b60008151905062000237816200020c565b92915050565b60008060408385031215620002575762000256620001fd565b5b6000620002678582860162000226565b92505060206200027a8582860162000226565b9150509250929050565b600082825260208201905092915050565b7f6e65656420737570706c79206d61696e20636f696e2076616c75652e00000000600082015250565b6000620002cd601c8362000284565b9150620002da8262000295565b602082019050919050565b600060208201905081810360008301526200030081620002be565b9050919050565b7f6e656564205f695f746f74616c537570706c7920657175616c206f72206d6f7260008201527f65207468616e2032313030303030300000000000000000000000000000000000602082015250565b600062000365602f8362000284565b9150620003728262000307565b604082019050919050565b60006020820190508181036000830152620003988162000356565b9050919050565b7f4e487b7100000000000000000000000000000000000000000000000000000000600052601160045260246000fd5b6000620003db8262000202565b9150620003e88362000202565b9250828202620003f88162000202565b915082820484148315176200041257620004116200039f565b5b5092915050565b7f696e697420416d6f756e74206f662063726561746f722063616e2774206d6f7260008201527f65207468616e20302e3125000000000000000000000000000000000000000000602082015250565b600062000477602b8362000284565b9150620004848262000419565b604082019050919050565b60006020820190508181036000830152620004aa8162000468565b9050919050565b6000620004be8262000202565b9150620004cb8362000202565b9250828203905081811115620004e657620004e56200039f565b5b92915050565b60805160a051610d16620005126000396000610447015260006104b30152610d166000f3fe6080604052600436106100955760003560e01c8063313ce56711610059578063313ce567146102b957806370a08231146102e457806395d89b4114610321578063a9059cbb1461034c578063aa271e1a1461037c576101dd565b806302d05d3f146101e257806306fdde031461020d5780630a702e8d14610238578063115880861461026357806318160ddd1461028e576101dd565b366101dd57600034116100dd576040517f08c379a00000000000000000000000000000000000000000000000000000000081526004016100d49061088a565b60405180910390fd5b34600260008282546100ef91906108e3565b9250508190555060006101006103b9565b9050600060025434836101139190610917565b61011d9190610988565b9050808261012b91906109b9565b9150610136826103ff565b806000803373ffffffffffffffffffffffffffffffffffffffff1673ffffffffffffffffffffffffffffffffffffffff168152602001908152602001600020600082825461018491906108e3565b925050819055503373ffffffffffffffffffffffffffffffffffffffff167fa9a40dec7a304e5915d11358b968c1e8d365992abf20f82285d1df1b30c8e24c82346040516101d39291906109fc565b60405180910390a2005b600080fd5b3480156101ee57600080fd5b506101f7610445565b6040516102049190610a66565b60405180910390f35b34801561021957600080fd5b50610222610469565b60405161022f9190610b00565b60405180910390f35b34801561024457600080fd5b5061024d6104a2565b60405161025a9190610b22565b60405180910390f35b34801561026f57600080fd5b506102786103b9565b6040516102859190610b22565b60405180910390f35b34801561029a57600080fd5b506102a36104a7565b6040516102b09190610b22565b60405180910390f35b3480156102c557600080fd5b506102ce6104b1565b6040516102db9190610b59565b60405180910390f35b3480156102f057600080fd5b5061030b60048036038101906103069190610ba5565b6104d5565b6040516103189190610b22565b60405180910390f35b34801561032d57600080fd5b506103366104ed565b6040516103439190610b00565b60405180910390f35b61036660048036038101906103619190610bfe565b610526565b6040516103739190610c59565b60405180910390f35b34801561038857600080fd5b506103a3600480360381019061039e9190610ba5565b61080d565b6040516103b09190610c59565b60405180910390f35b60008060003073ffffffffffffffffffffffffffffffffffffffff1673ffffffffffffffffffffffffffffffffffffffff16815260200190815260200160002054905090565b806000803073ffffffffffffffffffffffffffffffffffffffff1673ffffffffffffffffffffffffffffffffffffffff1681526020019081526020016000208190555050565b7f000000000000000000000000000000000000000000000000000000000000000081565b6040518060400160405280600581526020017f4d4d33313400000000000000000000000000000000000000000000000000000081525081565b603c81565b6000600154905090565b7f000000000000000000000000000000000000000000000000000000000000000081565b60006020528060005260406000206000915090505481565b6040518060400160405280600581526020017f4d4d33313400000000000000000000000000000000000000000000000000000081525081565b60008073ffffffffffffffffffffffffffffffffffffffff168373ffffffffffffffffffffffffffffffffffffffff160361056057600080fd5b60008060003373ffffffffffffffffffffffffffffffffffffffff1673ffffffffffffffffffffffffffffffffffffffff168152602001908152602001600020549050828110156105e6576040517f08c379a00000000000000000000000000000000000000000000000000000000081526004016105dd90610cc0565b60405180910390fd5b82816105f291906109b9565b6000803373ffffffffffffffffffffffffffffffffffffffff1673ffffffffffffffffffffffffffffffffffffffff168152602001908152602001600020819055503073ffffffffffffffffffffffffffffffffffffffff168473ffffffffffffffffffffffffffffffffffffffff1603610747576000836106726103b9565b61067c91906108e3565b9050610687816103ff565b600081856002546106989190610917565b6106a29190610988565b90503373ffffffffffffffffffffffffffffffffffffffff166108fc829081150290604051600060405180830381858888f193505050501580156106ea573d6000803e3d6000fd5b503373ffffffffffffffffffffffffffffffffffffffff167fc3d85f03dec326057cea90f2cf1001cb1638f958b1517eab0f4569a880a717ec86346040516107339291906109fc565b60405180910390a260019350505050610807565b826000808673ffffffffffffffffffffffffffffffffffffffff1673ffffffffffffffffffffffffffffffffffffffff168152602001908152602001600020600082825461079591906108e3565b925050819055508373ffffffffffffffffffffffffffffffffffffffff163373ffffffffffffffffffffffffffffffffffffffff167fddf252ad1be2c89b69c2b068fc378daa952ba7f163c4a11628f55a4df523b3ef856040516107f99190610b22565b60405180910390a360019150505b92915050565b60036020528060005260406000206000915054906101000a900460ff1681565b600082825260208201905092915050565b7f6e656564206d6f7265207468616e207a65726f2e000000000000000000000000600082015250565b600061087460148361082d565b915061087f8261083e565b602082019050919050565b600060208201905081810360008301526108a381610867565b9050919050565b6000819050919050565b7f4e487b7100000000000000000000000000000000000000000000000000000000600052601160045260246000fd5b60006108ee826108aa565b91506108f9836108aa565b9250828201905080821115610911576109106108b4565b5b92915050565b6000610922826108aa565b915061092d836108aa565b925082820261093b816108aa565b91508282048414831517610952576109516108b4565b5b5092915050565b7f4e487b7100000000000000000000000000000000000000000000000000000000600052601260045260246000fd5b6000610993826108aa565b915061099e836108aa565b9250826109ae576109ad610959565b5b828204905092915050565b60006109c4826108aa565b91506109cf836108aa565b92508282039050818111156109e7576109e66108b4565b5b92915050565b6109f6816108aa565b82525050565b6000604082019050610a1160008301856109ed565b610a1e60208301846109ed565b9392505050565b600073ffffffffffffffffffffffffffffffffffffffff82169050919050565b6000610a5082610a25565b9050919050565b610a6081610a45565b82525050565b6000602082019050610a7b6000830184610a57565b92915050565b600081519050919050565b60005b83811015610aaa578082015181840152602081019050610a8f565b60008484015250505050565b6000601f19601f8301169050919050565b6000610ad282610a81565b610adc818561082d565b9350610aec818560208601610a8c565b610af581610ab6565b840191505092915050565b60006020820190508181036000830152610b1a8184610ac7565b905092915050565b6000602082019050610b3760008301846109ed565b92915050565b600060ff82169050919050565b610b5381610b3d565b82525050565b6000602082019050610b6e6000830184610b4a565b92915050565b600080fd5b610b8281610a45565b8114610b8d57600080fd5b50565b600081359050610b9f81610b79565b92915050565b600060208284031215610bbb57610bba610b74565b5b6000610bc984828501610b90565b91505092915050565b610bdb816108aa565b8114610be657600080fd5b50565b600081359050610bf881610bd2565b92915050565b60008060408385031215610c1557610c14610b74565b5b6000610c2385828601610b90565b9250506020610c3485828601610be9565b9150509250929050565b60008115159050919050565b610c5381610c3e565b82525050565b6000602082019050610c6e6000830184610c4a565b92915050565b7f7472616e7366657220616d6f756e7420657863656564732062616c616e63652e600082015250565b6000610caa60208361082d565b9150610cb582610c74565b602082019050919050565b60006020820190508181036000830152610cd981610c9d565b905091905056fea26469706673582212206c8a08b1dc70f6d0052f5ab45c2bd53086674107e5300430eef1cffc47f8ce3e64736f6c63430008180033",
  "linkReferences": {},
  "deployedLinkReferences": {}
}